{
  "_format": "hh-sol-artifact-1",
  "contractName": "EducationalCredential",
  "sourceName": "contracts/EducationalCredential.sol",
  "abi": [
    {
      "inputs": [
        {
          "internalType": "address",
          "name": "spInstanceAddress",
          "type": "address"
        }
      ],
      "stateMutability": "nonpayable",
      "type": "constructor"
    },
    {
      "inputs": [
        {
          "internalType": "address",
          "name": "owner",
          "type": "address"
        }
      ],
      "name": "OwnableInvalidOwner",
      "type": "error"
    },
    {
      "inputs": [
        {
          "internalType": "address",
          "name": "account",
          "type": "address"
        }
      ],
      "name": "OwnableUnauthorizedAccount",
      "type": "error"
    },
    {
      "anonymous": false,
      "inputs": [
        {
          "indexed": true,
          "internalType": "address",
          "name": "institution",
          "type": "address"
        },
        {
          "indexed": true,
          "internalType": "address",
          "name": "recipient",
          "type": "address"
        },
        {
          "indexed": false,
          "internalType": "string",
          "name": "course",
          "type": "string"
        },
        {
          "indexed": false,
          "internalType": "uint256",
          "name": "issueDate",
          "type": "uint256"
        }
      ],
      "name": "CredentialIssued",
      "type": "event"
    },
    {
      "anonymous": false,
      "inputs": [
        {
          "indexed": true,
          "internalType": "address",
          "name": "previousOwner",
          "type": "address"
        },
        {
          "indexed": true,
          "internalType": "address",
          "name": "newOwner",
          "type": "address"
        }
      ],
      "name": "OwnershipTransferred",
      "type": "event"
    },
    {
      "inputs": [],
      "name": "CREDENTIAL_SCHEMA_ID",
      "outputs": [
        {
          "internalType": "uint64",
          "name": "",
          "type": "uint64"
        }
      ],
      "stateMutability": "view",
      "type": "function"
    },
    {
      "inputs": [
        {
          "internalType": "address",
          "name": "wallet",
          "type": "address"
        }
      ],
      "name": "getCredentials",
      "outputs": [
        {
          "internalType": "string[]",
          "name": "courses",
          "type": "string[]"
        },
        {
          "internalType": "uint256[]",
          "name": "issueDates",
          "type": "uint256[]"
        }
      ],
      "stateMutability": "view",
      "type": "function"
    },
    {
      "inputs": [
        {
          "internalType": "address",
          "name": "wallet",
          "type": "address"
        }
      ],
      "name": "getLatestCredential",
      "outputs": [
        {
          "internalType": "bool",
          "name": "found",
          "type": "bool"
        },
        {
          "internalType": "string",
          "name": "course",
          "type": "string"
        },
        {
          "internalType": "uint256",
          "name": "issueDate",
          "type": "uint256"
        }
      ],
      "stateMutability": "view",
      "type": "function"
    },
    {
      "inputs": [
        {
          "internalType": "address",
          "name": "recipient",
          "type": "address"
        },
        {
          "internalType": "string",
          "name": "course",
          "type": "string"
        },
        {
          "internalType": "uint256",
          "name": "issueDate",
          "type": "uint256"
        }
      ],
      "name": "issueCredential",
      "outputs": [],
      "stateMutability": "nonpayable",
      "type": "function"
    },
    {
      "inputs": [],
      "name": "owner",
      "outputs": [
        {
          "internalType": "address",
          "name": "",
          "type": "address"
        }
      ],
      "stateMutability": "view",
      "type": "function"
    },
    {
      "inputs": [],
      "name": "renounceOwnership",
      "outputs": [],
      "stateMutability": "nonpayable",
      "type": "function"
    },
    {
      "inputs": [
        {
          "internalType": "address",
          "name": "instance",
          "type": "address"
        }
      ],
      "name": "setSPInstance",
      "outputs": [],
      "stateMutability": "nonpayable",
      "type": "function"
    },
    {
      "inputs": [],
      "name": "spInstance",
      "outputs": [
        {
          "internalType": "contract ISP",
          "name": "",
          "type": "address"
        }
      ],
      "stateMutability": "view",
      "type": "function"
    },
    {
      "inputs": [
        {
          "internalType": "address",
          "name": "newOwner",
          "type": "address"
        }
      ],
      "name": "transferOwnership",
      "outputs": [],
      "stateMutability": "nonpayable",
      "type": "function"
    }
  ],
  "bytecode": "0x60806040523480156200001157600080fd5b5060405162001e2738038062001e278339818101604052810190620000379190620002be565b620000476200018860201b60201c565b600073ffffffffffffffffffffffffffffffffffffffff168173ffffffffffffffffffffffffffffffffffffffff1603620000bc5760006040517f1e4fbdf7000000000000000000000000000000000000000000000000000000008152600401620000b3919062000301565b60405180910390fd5b620000cd816200019060201b60201c565b50600073ffffffffffffffffffffffffffffffffffffffff168173ffffffffffffffffffffffffffffffffffffffff160362000140576040517f08c379a000000000000000000000000000000000000000000000000000000000815260040162000137906200037f565b60405180910390fd5b80600160006101000a81548173ffffffffffffffffffffffffffffffffffffffff021916908373ffffffffffffffffffffffffffffffffffffffff16021790555050620003a1565b600033905090565b60008060009054906101000a900473ffffffffffffffffffffffffffffffffffffffff169050816000806101000a81548173ffffffffffffffffffffffffffffffffffffffff021916908373ffffffffffffffffffffffffffffffffffffffff1602179055508173ffffffffffffffffffffffffffffffffffffffff168173ffffffffffffffffffffffffffffffffffffffff167f8be0079c531659141344cd1fd0a4f28419497f9722a3daafe3b4186f6b6457e060405160405180910390a35050565b600080fd5b600073ffffffffffffffffffffffffffffffffffffffff82169050919050565b6000620002868262000259565b9050919050565b620002988162000279565b8114620002a457600080fd5b50565b600081519050620002b8816200028d565b92915050565b600060208284031215620002d757620002d662000254565b5b6000620002e784828501620002a7565b91505092915050565b620002fb8162000279565b82525050565b6000602082019050620003186000830184620002f0565b92915050565b600082825260208201905092915050565b7f496e76616c696420535020696e7374616e636520616464726573730000000000600082015250565b600062000367601b836200031e565b915062000374826200032f565b602082019050919050565b600060208201905081810360008301526200039a8162000358565b9050919050565b611a7680620003b16000396000f3fe608060405234801561001057600080fd5b50600436106100935760003560e01c80638da5cb5b116100665780638da5cb5b146101235780638e9841d0146101415780638e9d660f1461015d578063a8c5dc3314610179578063f2fde38b1461019757610093565b806304dd804614610098578063715018a6146100b65780637df5e551146100c057806384270608146100f2575b600080fd5b6100a06101b3565b6040516100ad9190610cea565b60405180910390f35b6100be6101b8565b005b6100da60048036038101906100d59190610d77565b6101cc565b6040516100e993929190610e68565b60405180910390f35b61010c60048036038101906101079190610d77565b610377565b60405161011a929190611070565b60405180910390f35b61012b6105eb565b60405161013891906110b6565b60405180910390f35b61015b60048036038101906101569190611232565b610614565b005b61017760048036038101906101729190610d77565b610896565b005b610181610951565b60405161018e9190611300565b60405180910390f35b6101b160048036038101906101ac9190610d77565b610977565b005b600181565b6101c06109fd565b6101ca6000610a84565b565b60006060600080600260008673ffffffffffffffffffffffffffffffffffffffff1673ffffffffffffffffffffffffffffffffffffffff168152602001908152602001600020805480602002602001604051908101604052809291908181526020016000905b8282101561030057838290600052602060002090600202016040518060400160405290816000820180546102659061134a565b80601f01602080910402602001604051908101604052809291908181526020018280546102919061134a565b80156102de5780601f106102b3576101008083540402835291602001916102de565b820191906000526020600020905b8154815290600101906020018083116102c157829003601f168201915b5050505050815260200160018201548152505081526020019060010190610232565b505050509050600081510361032f57600080604051806020016040528060008152509093509350935050610370565b6000816001835161034091906113aa565b81518110610351576103506113de565b5b6020026020010151905060018160000151826020015194509450945050505b9193909250565b6060806000600260008573ffffffffffffffffffffffffffffffffffffffff1673ffffffffffffffffffffffffffffffffffffffff168152602001908152602001600020805480602002602001604051908101604052809291908181526020016000905b828210156104a9578382906000526020600020906002020160405180604001604052908160008201805461040e9061134a565b80601f016020809104026020016040519081016040528092919081815260200182805461043a9061134a565b80156104875780601f1061045c57610100808354040283529160200191610487565b820191906000526020600020905b81548152906001019060200180831161046a57829003601f168201915b50505050508152602001600182015481525050815260200190600101906103db565b5050505090506000815190508067ffffffffffffffff8111156104cf576104ce6110db565b5b60405190808252806020026020018201604052801561050257816020015b60608152602001906001900390816104ed5790505b5093508067ffffffffffffffff81111561051f5761051e6110db565b5b60405190808252806020026020018201604052801561054d5781602001602082028036833780820191505090505b50925060005b818110156105e35782818151811061056e5761056d6113de565b5b60200260200101516000015185828151811061058d5761058c6113de565b5b60200260200101819052508281815181106105ab576105aa6113de565b5b6020026020010151602001518482815181106105ca576105c96113de565b5b6020026020010181815250508080600101915050610553565b505050915091565b60008060009054906101000a900473ffffffffffffffffffffffffffffffffffffffff16905090565b61061c6109fd565b600073ffffffffffffffffffffffffffffffffffffffff168373ffffffffffffffffffffffffffffffffffffffff160361068b576040517f08c379a000000000000000000000000000000000000000000000000000000000815260040161068290611459565b60405180910390fd5b60008251116106cf576040517f08c379a00000000000000000000000000000000000000000000000000000000081526004016106c6906114c5565b60405180910390fd5b42811115610712576040517f08c379a000000000000000000000000000000000000000000000000000000000815260040161070990611557565b60405180910390fd5b60006107416001848460405160200161072c929190611577565b60405160208183030381529060405286610b48565b905080610783576040517f08c379a000000000000000000000000000000000000000000000000000000000815260040161077a906115f3565b60405180910390fd5b600260008573ffffffffffffffffffffffffffffffffffffffff1673ffffffffffffffffffffffffffffffffffffffff1681526020019081526020016000206040518060400160405280858152602001848152509080600181540180825580915050600190039060005260206000209060020201600090919091909150600082015181600001908161081591906117b5565b506020820151816001015550508373ffffffffffffffffffffffffffffffffffffffff16610841610cbf565b73ffffffffffffffffffffffffffffffffffffffff167f3cdce538b6db111fcf97c8cdfc0f65dcd4c7eaeea28abf410f46ad76daed828b8585604051610888929190611577565b60405180910390a350505050565b61089e6109fd565b600073ffffffffffffffffffffffffffffffffffffffff168173ffffffffffffffffffffffffffffffffffffffff160361090d576040517f08c379a0000000000000000000000000000000000000000000000000000000008152600401610904906118d3565b60405180910390fd5b80600160006101000a81548173ffffffffffffffffffffffffffffffffffffffff021916908373ffffffffffffffffffffffffffffffffffffffff16021790555050565b600160009054906101000a900473ffffffffffffffffffffffffffffffffffffffff1681565b61097f6109fd565b600073ffffffffffffffffffffffffffffffffffffffff168173ffffffffffffffffffffffffffffffffffffffff16036109f15760006040517f1e4fbdf70000000000000000000000000000000000000000000000000000000081526004016109e891906110b6565b60405180910390fd5b6109fa81610a84565b50565b610a05610cbf565b73ffffffffffffffffffffffffffffffffffffffff16610a236105eb565b73ffffffffffffffffffffffffffffffffffffffff1614610a8257610a46610cbf565b6040517f118cdaa7000000000000000000000000000000000000000000000000000000008152600401610a7991906110b6565b60405180910390fd5b565b60008060009054906101000a900473ffffffffffffffffffffffffffffffffffffffff169050816000806101000a81548173ffffffffffffffffffffffffffffffffffffffff021916908373ffffffffffffffffffffffffffffffffffffffff1602179055508173ffffffffffffffffffffffffffffffffffffffff168173ffffffffffffffffffffffffffffffffffffffff167f8be0079c531659141344cd1fd0a4f28419497f9722a3daafe3b4186f6b6457e060405160405180910390a35050565b6000600167ffffffffffffffff168467ffffffffffffffff1614610ba1576040517f08c379a0000000000000000000000000000000000000000000000000000000008152600401610b989061193f565b60405180910390fd5b600073ffffffffffffffffffffffffffffffffffffffff168273ffffffffffffffffffffffffffffffffffffffff1603610c10576040517f08c379a0000000000000000000000000000000000000000000000000000000008152600401610c0790611459565b60405180910390fd5b60008084806020019051810190610c2791906119e4565b915091506000825111610c6f576040517f08c379a0000000000000000000000000000000000000000000000000000000008152600401610c66906114c5565b60405180910390fd5b42811115610cb2576040517f08c379a0000000000000000000000000000000000000000000000000000000008152600401610ca990611557565b60405180910390fd5b6001925050509392505050565b600033905090565b600067ffffffffffffffff82169050919050565b610ce481610cc7565b82525050565b6000602082019050610cff6000830184610cdb565b92915050565b6000604051905090565b600080fd5b600080fd5b600073ffffffffffffffffffffffffffffffffffffffff82169050919050565b6000610d4482610d19565b9050919050565b610d5481610d39565b8114610d5f57600080fd5b50565b600081359050610d7181610d4b565b92915050565b600060208284031215610d8d57610d8c610d0f565b5b6000610d9b84828501610d62565b91505092915050565b60008115159050919050565b610db981610da4565b82525050565b600081519050919050565b600082825260208201905092915050565b60005b83811015610df9578082015181840152602081019050610dde565b60008484015250505050565b6000601f19601f8301169050919050565b6000610e2182610dbf565b610e2b8185610dca565b9350610e3b818560208601610ddb565b610e4481610e05565b840191505092915050565b6000819050919050565b610e6281610e4f565b82525050565b6000606082019050610e7d6000830186610db0565b8181036020830152610e8f8185610e16565b9050610e9e6040830184610e59565b949350505050565b600081519050919050565b600082825260208201905092915050565b6000819050602082019050919050565b600082825260208201905092915050565b6000610eee82610dbf565b610ef88185610ed2565b9350610f08818560208601610ddb565b610f1181610e05565b840191505092915050565b6000610f288383610ee3565b905092915050565b6000602082019050919050565b6000610f4882610ea6565b610f528185610eb1565b935083602082028501610f6485610ec2565b8060005b85811015610fa05784840389528151610f818582610f1c565b9450610f8c83610f30565b925060208a01995050600181019050610f68565b50829750879550505050505092915050565b600081519050919050565b600082825260208201905092915050565b6000819050602082019050919050565b610fe781610e4f565b82525050565b6000610ff98383610fde565b60208301905092915050565b6000602082019050919050565b600061101d82610fb2565b6110278185610fbd565b935061103283610fce565b8060005b8381101561106357815161104a8882610fed565b975061105583611005565b925050600181019050611036565b5085935050505092915050565b6000604082019050818103600083015261108a8185610f3d565b9050818103602083015261109e8184611012565b90509392505050565b6110b081610d39565b82525050565b60006020820190506110cb60008301846110a7565b92915050565b600080fd5b600080fd5b7f4e487b7100000000000000000000000000000000000000000000000000000000600052604160045260246000fd5b61111382610e05565b810181811067ffffffffffffffff82111715611132576111316110db565b5b80604052505050565b6000611145610d05565b9050611151828261110a565b919050565b600067ffffffffffffffff821115611171576111706110db565b5b61117a82610e05565b9050602081019050919050565b82818337600083830152505050565b60006111a96111a484611156565b61113b565b9050828152602081018484840111156111c5576111c46110d6565b5b6111d0848285611187565b509392505050565b600082601f8301126111ed576111ec6110d1565b5b81356111fd848260208601611196565b91505092915050565b61120f81610e4f565b811461121a57600080fd5b50565b60008135905061122c81611206565b92915050565b60008060006060848603121561124b5761124a610d0f565b5b600061125986828701610d62565b935050602084013567ffffffffffffffff81111561127a57611279610d14565b5b611286868287016111d8565b92505060406112978682870161121d565b9150509250925092565b6000819050919050565b60006112c66112c16112bc84610d19565b6112a1565b610d19565b9050919050565b60006112d8826112ab565b9050919050565b60006112ea826112cd565b9050919050565b6112fa816112df565b82525050565b600060208201905061131560008301846112f1565b92915050565b7f4e487b7100000000000000000000000000000000000000000000000000000000600052602260045260246000fd5b6000600282049050600182168061136257607f821691505b6020821081036113755761137461131b565b5b50919050565b7f4e487b7100000000000000000000000000000000000000000000000000000000600052601160045260246000fd5b60006113b582610e4f565b91506113c083610e4f565b92508282039050818111156113d8576113d761137b565b5b92915050565b7f4e487b7100000000000000000000000000000000000000000000000000000000600052603260045260246000fd5b7f496e76616c696420726563697069656e74206164647265737300000000000000600082015250565b6000611443601983610dca565b915061144e8261140d565b602082019050919050565b6000602082019050818103600083015261147281611436565b9050919050565b7f436f75727365206e616d652063616e6e6f7420626520656d7074790000000000600082015250565b60006114af601b83610dca565b91506114ba82611479565b602082019050919050565b600060208201905081810360008301526114de816114a2565b9050919050565b7f497373756520646174652063616e6e6f7420626520696e20746865206675747560008201527f7265000000000000000000000000000000000000000000000000000000000000602082015250565b6000611541602283610dca565b915061154c826114e5565b604082019050919050565b6000602082019050818103600083015261157081611534565b9050919050565b600060408201905081810360008301526115918185610e16565b90506115a06020830184610e59565b9392505050565b7f446174612076616c69646174696f6e206661696c656400000000000000000000600082015250565b60006115dd601683610dca565b91506115e8826115a7565b602082019050919050565b6000602082019050818103600083015261160c816115d0565b9050919050565b60008190508160005260206000209050919050565b60006020601f8301049050919050565b600082821b905092915050565b6000600883026116757fffffffffffffffffffffffffffffffffffffffffffffffffffffffffffffffff82611638565b61167f8683611638565b95508019841693508086168417925050509392505050565b60006116b26116ad6116a884610e4f565b6112a1565b610e4f565b9050919050565b6000819050919050565b6116cc83611697565b6116e06116d8826116b9565b848454611645565b825550505050565b600090565b6116f56116e8565b6117008184846116c3565b505050565b5b81811015611724576117196000826116ed565b600181019050611706565b5050565b601f8211156117695761173a81611613565b61174384611628565b81016020851015611752578190505b61176661175e85611628565b830182611705565b50505b505050565b600082821c905092915050565b600061178c6000198460080261176e565b1980831691505092915050565b60006117a5838361177b565b9150826002028217905092915050565b6117be82610dbf565b67ffffffffffffffff8111156117d7576117d66110db565b5b6117e1825461134a565b6117ec828285611728565b600060209050601f83116001811461181f576000841561180d578287015190505b6118178582611799565b86555061187f565b601f19841661182d86611613565b60005b8281101561185557848901518255600182019150602085019450602081019050611830565b86831015611872578489015161186e601f89168261177b565b8355505b6001600288020188555050505b505050505050565b7f496e76616c696420535020696e7374616e636520616464726573730000000000600082015250565b60006118bd601b83610dca565b91506118c882611887565b602082019050919050565b600060208201905081810360008301526118ec816118b0565b9050919050565b7f496e76616c696420736368656d61204944000000000000000000000000000000600082015250565b6000611929601183610dca565b9150611934826118f3565b602082019050919050565b600060208201905081810360008301526119588161191c565b9050919050565b600061197261196d84611156565b61113b565b90508281526020810184848401111561198e5761198d6110d6565b5b611999848285610ddb565b509392505050565b600082601f8301126119b6576119b56110d1565b5b81516119c684826020860161195f565b91505092915050565b6000815190506119de81611206565b92915050565b600080604083850312156119fb576119fa610d0f565b5b600083015167ffffffffffffffff811115611a1957611a18610d14565b5b611a25858286016119a1565b9250506020611a36858286016119cf565b915050925092905056fea2646970667358221220bae6a4f63e0e60c32e240c8c9dd48e739d3fc9b63aee871ed5938c0807c7ea2164736f6c63430008180033",
  "linkReferences": {},
  "deployedLinkReferences": {}
}