{"contracts/FundMe.sol":{"EducationalCredential":{"abi":[{"inputs":[],"stateMutability":"nonpayable","type":"constructor"},{"inputs":[{"internalType":"address","name":"owner","type":"address"}],"name":"OwnableInvalidOwner","type":"error"},{"inputs":[{"internalType":"address","name":"account","type":"address"}],"name":"OwnableUnauthorizedAccount","type":"error"},{"anonymous":false,"inputs":[{"indexed":true,"internalType":"address","name":"institution","type":"address"},{"indexed":true,"internalType":"address","name":"recipient","type":"address"},{"indexed":false,"internalType":"string","name":"course","type":"string"},{"indexed":false,"internalType":"uint256","name":"issueDate","type":"uint256"}],"name":"CredentialIssued","type":"event"},{"anonymous":false,"inputs":[{"indexed":true,"internalType":"address","name":"previousOwner","type":"address"},{"indexed":true,"internalType":"address","name":"newOwner","type":"address"}],"name":"OwnershipTransferred","type":"event"},{"inputs":[],"name":"credentialSchemaId","outputs":[{"internalType":"uint64","name":"","type":"uint64"}],"stateMutability":"view","type":"function"},{"inputs":[{"internalType":"address","name":"recipient","type":"address"},{"internalType":"string","name":"course","type":"string"},{"internalType":"uint256","name":"issueDate","type":"uint256"}],"name":"issueCredential","outputs":[{"internalType":"uint64","name":"","type":"uint64"}],"stateMutability":"nonpayable","type":"function"},{"inputs":[],"name":"owner","outputs":[{"internalType":"address","name":"","type":"address"}],"stateMutability":"view","type":"function"},{"inputs":[],"name":"renounceOwnership","outputs":[],"stateMutability":"nonpayable","type":"function"},{"inputs":[{"internalType":"uint64","name":"schemaId","type":"uint64"},{"internalType":"bytes","name":"data","type":"bytes"},{"internalType":"bytes[]","name":"recipients","type":"bytes[]"}],"name":"schemaHook","outputs":[{"internalType":"bool","name":"","type":"bool"}],"stateMutability":"view","type":"function"},{"inputs":[{"internalType":"uint64","name":"schemaId","type":"uint64"}],"name":"setCredentialSchemaID","outputs":[],"stateMutability":"nonpayable","type":"function"},{"inputs":[{"internalType":"address","name":"instance","type":"address"}],"name":"setSPInstance","outputs":[],"stateMutability":"nonpayable","type":"function"},{"inputs":[],"name":"spInstance","outputs":[{"internalType":"contract ISP","name":"","type":"address"}],"stateMutability":"view","type":"function"},{"inputs":[{"internalType":"address","name":"newOwner","type":"address"}],"name":"transferOwnership","outputs":[],"stateMutability":"nonpayable","type":"function"},{"inputs":[{"internalType":"address","name":"wallet","type":"address"}],"name":"verifyCredential","outputs":[{"internalType":"bool","name":"","type":"bool"},{"internalType":"string","name":"","type":"string"},{"internalType":"uint256","name":"","type":"uint256"}],"stateMutability":"view","type":"function"}],"devdoc":{"errors":{"OwnableInvalidOwner(address)":[{"details":"The owner is not a valid owner account. (eg. `address(0)`)"}],"OwnableUnauthorizedAccount(address)":[{"details":"The caller account is not authorized to perform an operation."}]},"kind":"dev","methods":{"owner()":{"details":"Returns the address of the current owner."},"renounceOwnership()":{"details":"Leaves the contract without owner. It will not be possible to call `onlyOwner` functions. Can only be called by the current owner. NOTE: Renouncing ownership will leave the contract without an owner, thereby disabling any functionality that is only available to the owner."},"transferOwnership(address)":{"details":"Transfers ownership of the contract to a new account (`newOwner`). Can only be called by the current owner."}},"version":1},"evm":{"bytecode":{"linkReferences":{},"object":"60806040523480156200001157600080fd5b5062000022620000af60201b60201c565b600073ffffffffffffffffffffffffffffffffffffffff168173ffffffffffffffffffffffffffffffffffffffff1603620000975760006040517f1e4fbdf70000000000000000000000000000000000000000000000000000000081526004016200008e9190620001c0565b60405180910390fd5b620000a881620000b760201b60201c565b50620001dd565b600033905090565b60008060009054906101000a900473ffffffffffffffffffffffffffffffffffffffff169050816000806101000a81548173ffffffffffffffffffffffffffffffffffffffff021916908373ffffffffffffffffffffffffffffffffffffffff1602179055508173ffffffffffffffffffffffffffffffffffffffff168173ffffffffffffffffffffffffffffffffffffffff167f8be0079c531659141344cd1fd0a4f28419497f9722a3daafe3b4186f6b6457e060405160405180910390a35050565b600073ffffffffffffffffffffffffffffffffffffffff82169050919050565b6000620001a8826200017b565b9050919050565b620001ba816200019b565b82525050565b6000602082019050620001d76000830184620001af565b92915050565b611dd580620001ed6000396000f3fe608060405234801561001057600080fd5b506004361061009e5760003560e01c8063a8c5dc3311610066578063a8c5dc3314610149578063b4c4a05414610167578063e14e071b14610185578063f2fde38b146101a1578063f84dd785146101bd5761009e565b806370dd0dbc146100a3578063715018a6146100d55780638da5cb5b146100df5780638e9841d0146100fd5780638e9d660f1461012d575b600080fd5b6100bd60048036038101906100b89190610c5b565b6101ed565b6040516100cc93929190610d4c565b60405180910390f35b6100dd6104b0565b005b6100e76104c4565b6040516100f49190610d99565b60405180910390f35b61011760048036038101906101129190610f15565b6104ed565b6040516101249190610fa7565b60405180910390f35b61014760048036038101906101429190610c5b565b6107f0565b005b61015161083c565b60405161015e9190611021565b60405180910390f35b61016f610862565b60405161017c9190610fa7565b60405180910390f35b61019f600480360381019061019a9190611068565b61087c565b005b6101bb60048036038101906101b69190610c5b565b6108b0565b005b6101d760048036038101906101d2919061114b565b610936565b6040516101e491906111e0565b60405180910390f35b60006060600080600090506000806000600190505b600160009054906101000a900473ffffffffffffffffffffffffffffffffffffffff1673ffffffffffffffffffffffffffffffffffffffff166362252880826040518263ffffffff1660e01b815260040161025d9190610fa7565b600060405180830381865afa92505050801561029c57506040513d6000823e3d601f19601f820116820180604052508101906102999190611530565b60015b156103ab57600160149054906101000a900467ffffffffffffffff1667ffffffffffffffff16816000015167ffffffffffffffff161480156102e057508060e00151155b80156102f25750600081610100015151115b1561039757600081610100015160008151811061031257610311611579565b5b602002602001015180602001905181019061032d91906115e6565b90508973ffffffffffffffffffffffffffffffffffffffff168173ffffffffffffffffffffffffffffffffffffffff16148015610377575083826040015167ffffffffffffffff16115b156103955760019550829450816040015167ffffffffffffffff1693505b505b5080806103a390611642565b915050610202565b50826103d35760008060405180602001604052806000815250909550955095505050506104a9565b6000600160009054906101000a900473ffffffffffffffffffffffffffffffffffffffff1673ffffffffffffffffffffffffffffffffffffffff166362252880846040518263ffffffff1660e01b81526004016104309190610fa7565b600060405180830381865afa15801561044d573d6000803e3d6000fd5b505050506040513d6000823e3d601f19601f820116820180604052508101906104769190611530565b905060008082610120015180602001905181019061049491906116f7565b91509150600182829850985098505050505050505b9193909250565b6104b8610a96565b6104c26000610b1d565b565b60008060009054906101000a900473ffffffffffffffffffffffffffffffffffffffff16905090565b600080600160149054906101000a900467ffffffffffffffff1667ffffffffffffffff1603610551576040517f08c379a00000000000000000000000000000000000000000000000000000000081526004016105489061179f565b60405180910390fd5b600083836040516020016105669291906117bf565b60405160208183030381529060405290506000600167ffffffffffffffff81111561059457610593610dbe565b5b6040519080825280602002602001820160405280156105c757816020015b60608152602001906001900390816105b25790505b509050856040516020016105db9190610d99565b604051602081830303815290604052816000815181106105fe576105fd611579565b5b60200260200101819052506000604051806101400160405280600160149054906101000a900467ffffffffffffffff1667ffffffffffffffff168152602001600067ffffffffffffffff168152602001600067ffffffffffffffff168152602001600067ffffffffffffffff168152602001610678610be1565b73ffffffffffffffffffffffffffffffffffffffff168152602001600067ffffffffffffffff168152602001600060038111156106b8576106b76117ef565b5b81526020016000151581526020018381526020018481525090506000600160009054906101000a900473ffffffffffffffffffffffffffffffffffffffff1673ffffffffffffffffffffffffffffffffffffffff1663b82916cb836040518263ffffffff1660e01b815260040161072f9190611ae5565b6020604051808303816000875af115801561074e573d6000803e3d6000fd5b505050506040513d601f19601f820116820180604052508101906107729190611b40565b90508773ffffffffffffffffffffffffffffffffffffffff16610793610be1565b73ffffffffffffffffffffffffffffffffffffffff167f3cdce538b6db111fcf97c8cdfc0f65dcd4c7eaeea28abf410f46ad76daed828b89896040516107da9291906117bf565b60405180910390a3809450505050509392505050565b6107f8610a96565b80600160006101000a81548173ffffffffffffffffffffffffffffffffffffffff021916908373ffffffffffffffffffffffffffffffffffffffff16021790555050565b600160009054906101000a900473ffffffffffffffffffffffffffffffffffffffff1681565b600160149054906101000a900467ffffffffffffffff1681565b610884610a96565b80600160146101000a81548167ffffffffffffffff021916908367ffffffffffffffff16021790555050565b6108b8610a96565b600073ffffffffffffffffffffffffffffffffffffffff168173ffffffffffffffffffffffffffffffffffffffff160361092a5760006040517f1e4fbdf70000000000000000000000000000000000000000000000000000000081526004016109219190610d99565b60405180910390fd5b61093381610b1d565b50565b6000600160149054906101000a900467ffffffffffffffff1667ffffffffffffffff168667ffffffffffffffff16146109a4576040517f08c379a000000000000000000000000000000000000000000000000000000000815260040161099b90611bb9565b60405180910390fd5b600183839050146109ea576040517f08c379a00000000000000000000000000000000000000000000000000000000081526004016109e190611c25565b60405180910390fd5b60008086868101906109fc9190611c45565b915091506000825111610a44576040517f08c379a0000000000000000000000000000000000000000000000000000000008152600401610a3b90611ced565b60405180910390fd5b42811115610a87576040517f08c379a0000000000000000000000000000000000000000000000000000000008152600401610a7e90611d7f565b60405180910390fd5b60019250505095945050505050565b610a9e610be1565b73ffffffffffffffffffffffffffffffffffffffff16610abc6104c4565b73ffffffffffffffffffffffffffffffffffffffff1614610b1b57610adf610be1565b6040517f118cdaa7000000000000000000000000000000000000000000000000000000008152600401610b129190610d99565b60405180910390fd5b565b60008060009054906101000a900473ffffffffffffffffffffffffffffffffffffffff169050816000806101000a81548173ffffffffffffffffffffffffffffffffffffffff021916908373ffffffffffffffffffffffffffffffffffffffff1602179055508173ffffffffffffffffffffffffffffffffffffffff168173ffffffffffffffffffffffffffffffffffffffff167f8be0079c531659141344cd1fd0a4f28419497f9722a3daafe3b4186f6b6457e060405160405180910390a35050565b600033905090565b6000604051905090565b600080fd5b600080fd5b600073ffffffffffffffffffffffffffffffffffffffff82169050919050565b6000610c2882610bfd565b9050919050565b610c3881610c1d565b8114610c4357600080fd5b50565b600081359050610c5581610c2f565b92915050565b600060208284031215610c7157610c70610bf3565b5b6000610c7f84828501610c46565b91505092915050565b60008115159050919050565b610c9d81610c88565b82525050565b600081519050919050565b600082825260208201905092915050565b60005b83811015610cdd578082015181840152602081019050610cc2565b60008484015250505050565b6000601f19601f8301169050919050565b6000610d0582610ca3565b610d0f8185610cae565b9350610d1f818560208601610cbf565b610d2881610ce9565b840191505092915050565b6000819050919050565b610d4681610d33565b82525050565b6000606082019050610d616000830186610c94565b8181036020830152610d738185610cfa565b9050610d826040830184610d3d565b949350505050565b610d9381610c1d565b82525050565b6000602082019050610dae6000830184610d8a565b92915050565b600080fd5b600080fd5b7f4e487b7100000000000000000000000000000000000000000000000000000000600052604160045260246000fd5b610df682610ce9565b810181811067ffffffffffffffff82111715610e1557610e14610dbe565b5b80604052505050565b6000610e28610be9565b9050610e348282610ded565b919050565b600067ffffffffffffffff821115610e5457610e53610dbe565b5b610e5d82610ce9565b9050602081019050919050565b82818337600083830152505050565b6000610e8c610e8784610e39565b610e1e565b905082815260208101848484011115610ea857610ea7610db9565b5b610eb3848285610e6a565b509392505050565b600082601f830112610ed057610ecf610db4565b5b8135610ee0848260208601610e79565b91505092915050565b610ef281610d33565b8114610efd57600080fd5b50565b600081359050610f0f81610ee9565b92915050565b600080600060608486031215610f2e57610f2d610bf3565b5b6000610f3c86828701610c46565b935050602084013567ffffffffffffffff811115610f5d57610f5c610bf8565b5b610f6986828701610ebb565b9250506040610f7a86828701610f00565b9150509250925092565b600067ffffffffffffffff82169050919050565b610fa181610f84565b82525050565b6000602082019050610fbc6000830184610f98565b92915050565b6000819050919050565b6000610fe7610fe2610fdd84610bfd565b610fc2565b610bfd565b9050919050565b6000610ff982610fcc565b9050919050565b600061100b82610fee565b9050919050565b61101b81611000565b82525050565b60006020820190506110366000830184611012565b92915050565b61104581610f84565b811461105057600080fd5b50565b6000813590506110628161103c565b92915050565b60006020828403121561107e5761107d610bf3565b5b600061108c84828501611053565b91505092915050565b600080fd5b600080fd5b60008083601f8401126110b5576110b4610db4565b5b8235905067ffffffffffffffff8111156110d2576110d1611095565b5b6020830191508360018202830111156110ee576110ed61109a565b5b9250929050565b60008083601f84011261110b5761110a610db4565b5b8235905067ffffffffffffffff81111561112857611127611095565b5b6020830191508360208202830111156111445761114361109a565b5b9250929050565b60008060008060006060868803121561116757611166610bf3565b5b600061117588828901611053565b955050602086013567ffffffffffffffff81111561119657611195610bf8565b5b6111a28882890161109f565b9450945050604086013567ffffffffffffffff8111156111c5576111c4610bf8565b5b6111d1888289016110f5565b92509250509295509295909350565b60006020820190506111f56000830184610c94565b92915050565b600080fd5b600080fd5b6000815190506112148161103c565b92915050565b60008151905061122981610c2f565b92915050565b6004811061123c57600080fd5b50565b60008151905061124e8161122f565b92915050565b61125d81610c88565b811461126857600080fd5b50565b60008151905061127a81611254565b92915050565b600067ffffffffffffffff82111561129b5761129a610dbe565b5b602082029050602081019050919050565b600067ffffffffffffffff8211156112c7576112c6610dbe565b5b6112d082610ce9565b9050602081019050919050565b60006112f06112eb846112ac565b610e1e565b90508281526020810184848401111561130c5761130b610db9565b5b611317848285610cbf565b509392505050565b600082601f83011261133457611333610db4565b5b81516113448482602086016112dd565b91505092915050565b600061136061135b84611280565b610e1e565b905080838252602082019050602084028301858111156113835761138261109a565b5b835b818110156113ca57805167ffffffffffffffff8111156113a8576113a7610db4565b5b8086016113b5898261131f565b85526020850194505050602081019050611385565b5050509392505050565b600082601f8301126113e9576113e8610db4565b5b81516113f984826020860161134d565b91505092915050565b60006101408284031215611419576114186111fb565b5b611424610140610e1e565b9050600061143484828501611205565b600083015250602061144884828501611205565b602083015250604061145c84828501611205565b604083015250606061147084828501611205565b60608301525060806114848482850161121a565b60808301525060a061149884828501611205565b60a08301525060c06114ac8482850161123f565b60c08301525060e06114c08482850161126b565b60e08301525061010082015167ffffffffffffffff8111156114e5576114e4611200565b5b6114f1848285016113d4565b6101008301525061012082015167ffffffffffffffff81111561151757611516611200565b5b6115238482850161131f565b6101208301525092915050565b60006020828403121561154657611545610bf3565b5b600082015167ffffffffffffffff81111561156457611563610bf8565b5b61157084828501611402565b91505092915050565b7f4e487b7100000000000000000000000000000000000000000000000000000000600052603260045260246000fd5b60006115b382610bfd565b9050919050565b6115c3816115a8565b81146115ce57600080fd5b50565b6000815190506115e0816115ba565b92915050565b6000602082840312156115fc576115fb610bf3565b5b600061160a848285016115d1565b91505092915050565b7f4e487b7100000000000000000000000000000000000000000000000000000000600052601160045260246000fd5b600061164d82610f84565b915067ffffffffffffffff820361166757611666611613565b5b600182019050919050565b600061168561168084610e39565b610e1e565b9050828152602081018484840111156116a1576116a0610db9565b5b6116ac848285610cbf565b509392505050565b600082601f8301126116c9576116c8610db4565b5b81516116d9848260208601611672565b91505092915050565b6000815190506116f181610ee9565b92915050565b6000806040838503121561170e5761170d610bf3565b5b600083015167ffffffffffffffff81111561172c5761172b610bf8565b5b611738858286016116b4565b9250506020611749858286016116e2565b9150509250929050565b7f43726564656e7469616c20736368656d61206e6f742073657400000000000000600082015250565b6000611789601983610cae565b915061179482611753565b602082019050919050565b600060208201905081810360008301526117b88161177c565b9050919050565b600060408201905081810360008301526117d98185610cfa565b90506117e86020830184610d3d565b9392505050565b7f4e487b7100000000000000000000000000000000000000000000000000000000600052602160045260246000fd5b61182781610f84565b82525050565b61183681610c1d565b82525050565b6004811061184d5761184c6117ef565b5b50565b600081905061185e8261183c565b919050565b600061186e82611850565b9050919050565b61187e81611863565b82525050565b61188d81610c88565b82525050565b600081519050919050565b600082825260208201905092915050565b6000819050602082019050919050565b600081519050919050565b600082825260208201905092915050565b60006118e6826118bf565b6118f081856118ca565b9350611900818560208601610cbf565b61190981610ce9565b840191505092915050565b600061192083836118db565b905092915050565b6000602082019050919050565b600061194082611893565b61194a818561189e565b93508360208202850161195c856118af565b8060005b8581101561199857848403895281516119798582611914565b945061198483611928565b925060208a01995050600181019050611960565b50829750879550505050505092915050565b6000610140830160008301516119c3600086018261181e565b5060208301516119d6602086018261181e565b5060408301516119e9604086018261181e565b5060608301516119fc606086018261181e565b506080830151611a0f608086018261182d565b5060a0830151611a2260a086018261181e565b5060c0830151611a3560c0860182611875565b5060e0830151611a4860e0860182611884565b50610100830151848203610100860152611a628282611935565b915050610120830151848203610120860152611a7e82826118db565b9150508091505092915050565b50565b6000611a9b600083610cae565b9150611aa682611a8b565b600082019050919050565b600082825260208201905092915050565b6000611acf600083611ab1565b9150611ada82611a8b565b600082019050919050565b60006080820190508181036000830152611aff81846119aa565b90508181036020830152611b1281611a8e565b90508181036040830152611b2581611ac2565b90508181036060830152611b3881611ac2565b905092915050565b600060208284031215611b5657611b55610bf3565b5b6000611b6484828501611205565b91505092915050565b7f496e76616c696420736368656d61204944000000000000000000000000000000600082015250565b6000611ba3601183610cae565b9150611bae82611b6d565b602082019050919050565b60006020820190508181036000830152611bd281611b96565b9050919050565b7f4f6e6c79206f6e6520726563697069656e7420616c6c6f776564000000000000600082015250565b6000611c0f601a83610cae565b9150611c1a82611bd9565b602082019050919050565b60006020820190508181036000830152611c3e81611c02565b9050919050565b60008060408385031215611c5c57611c5b610bf3565b5b600083013567ffffffffffffffff811115611c7a57611c79610bf8565b5b611c8685828601610ebb565b9250506020611c9785828601610f00565b9150509250929050565b7f436f75727365206e616d652063616e6e6f7420626520656d7074790000000000600082015250565b6000611cd7601b83610cae565b9150611ce282611ca1565b602082019050919050565b60006020820190508181036000830152611d0681611cca565b9050919050565b7f497373756520646174652063616e6e6f7420626520696e20746865206675747560008201527f7265000000000000000000000000000000000000000000000000000000000000602082015250565b6000611d69602283610cae565b9150611d7482611d0d565b604082019050919050565b60006020820190508181036000830152611d9881611d5c565b905091905056fea2646970667358221220e8d2125f97e29cb5b1359c4d5c4411eb111bb5f0973f40c655e849e64796b51364736f6c63430008180033","opcodes":"PUSH1 0x80 PUSH1 0x40 MSTORE CALLVALUE DUP1 ISZERO PUSH3 0x11 JUMPI PUSH1 0x0 DUP1 REVERT JUMPDEST POP PUSH3 0x22 PUSH3 0xAF PUSH1 0x20 SHL PUSH1 0x20 SHR JUMP JUMPDEST PUSH1 0x0 PUSH20 0xFFFFFFFFFFFFFFFFFFFFFFFFFFFFFFFFFFFFFFFF AND DUP2 PUSH20 0xFFFFFFFFFFFFFFFFFFFFFFFFFFFFFFFFFFFFFFFF AND SUB PUSH3 0x97 JUMPI PUSH1 0x0 PUSH1 0x40 MLOAD PUSH32 0x1E4FBDF700000000000000000000000000000000000000000000000000000000 DUP2 MSTORE PUSH1 0x4 ADD PUSH3 0x8E SWAP2 SWAP1 PUSH3 0x1C0 JUMP JUMPDEST PUSH1 0x40 MLOAD DUP1 SWAP2 SUB SWAP1 REVERT JUMPDEST PUSH3 0xA8 DUP2 PUSH3 0xB7 PUSH1 0x20 SHL PUSH1 0x20 SHR JUMP JUMPDEST POP PUSH3 0x1DD JUMP JUMPDEST PUSH1 0x0 CALLER SWAP1 POP SWAP1 JUMP JUMPDEST PUSH1 0x0 DUP1 PUSH1 0x0 SWAP1 SLOAD SWAP1 PUSH2 0x100 EXP SWAP1 DIV PUSH20 0xFFFFFFFFFFFFFFFFFFFFFFFFFFFFFFFFFFFFFFFF AND SWAP1 POP DUP2 PUSH1 0x0 DUP1 PUSH2 0x100 EXP DUP2 SLOAD DUP2 PUSH20 0xFFFFFFFFFFFFFFFFFFFFFFFFFFFFFFFFFFFFFFFF MUL NOT AND SWAP1 DUP4 PUSH20 0xFFFFFFFFFFFFFFFFFFFFFFFFFFFFFFFFFFFFFFFF AND MUL OR SWAP1 SSTORE POP DUP2 PUSH20 0xFFFFFFFFFFFFFFFFFFFFFFFFFFFFFFFFFFFFFFFF AND DUP2 PUSH20 0xFFFFFFFFFFFFFFFFFFFFFFFFFFFFFFFFFFFFFFFF AND PUSH32 0x8BE0079C531659141344CD1FD0A4F28419497F9722A3DAAFE3B4186F6B6457E0 PUSH1 0x40 MLOAD PUSH1 0x40 MLOAD DUP1 SWAP2 SUB SWAP1 LOG3 POP POP JUMP JUMPDEST PUSH1 0x0 PUSH20 0xFFFFFFFFFFFFFFFFFFFFFFFFFFFFFFFFFFFFFFFF DUP3 AND SWAP1 POP SWAP2 SWAP1 POP JUMP JUMPDEST PUSH1 0x0 PUSH3 0x1A8 DUP3 PUSH3 0x17B JUMP JUMPDEST SWAP1 POP SWAP2 SWAP1 POP JUMP JUMPDEST PUSH3 0x1BA DUP2 PUSH3 0x19B JUMP JUMPDEST DUP3 MSTORE POP POP JUMP JUMPDEST PUSH1 0x0 PUSH1 0x20 DUP3 ADD SWAP1 POP PUSH3 0x1D7 PUSH1 0x0 DUP4 ADD DUP5 PUSH3 0x1AF JUMP JUMPDEST SWAP3 SWAP2 POP POP JUMP JUMPDEST PUSH2 0x1DD5 DUP1 PUSH3 0x1ED PUSH1 0x0 CODECOPY PUSH1 0x0 RETURN INVALID PUSH1 0x80 PUSH1 0x40 MSTORE CALLVALUE DUP1 ISZERO PUSH2 0x10 JUMPI PUSH1 0x0 DUP1 REVERT JUMPDEST POP PUSH1 0x4 CALLDATASIZE LT PUSH2 0x9E JUMPI PUSH1 0x0 CALLDATALOAD PUSH1 0xE0 SHR DUP1 PUSH4 0xA8C5DC33 GT PUSH2 0x66 JUMPI DUP1 PUSH4 0xA8C5DC33 EQ PUSH2 0x149 JUMPI DUP1 PUSH4 0xB4C4A054 EQ PUSH2 0x167 JUMPI DUP1 PUSH4 0xE14E071B EQ PUSH2 0x185 JUMPI DUP1 PUSH4 0xF2FDE38B EQ PUSH2 0x1A1 JUMPI DUP1 PUSH4 0xF84DD785 EQ PUSH2 0x1BD JUMPI PUSH2 0x9E JUMP JUMPDEST DUP1 PUSH4 0x70DD0DBC EQ PUSH2 0xA3 JUMPI DUP1 PUSH4 0x715018A6 EQ PUSH2 0xD5 JUMPI DUP1 PUSH4 0x8DA5CB5B EQ PUSH2 0xDF JUMPI DUP1 PUSH4 0x8E9841D0 EQ PUSH2 0xFD JUMPI DUP1 PUSH4 0x8E9D660F EQ PUSH2 0x12D JUMPI JUMPDEST PUSH1 0x0 DUP1 REVERT JUMPDEST PUSH2 0xBD PUSH1 0x4 DUP1 CALLDATASIZE SUB DUP2 ADD SWAP1 PUSH2 0xB8 SWAP2 SWAP1 PUSH2 0xC5B JUMP JUMPDEST PUSH2 0x1ED JUMP JUMPDEST PUSH1 0x40 MLOAD PUSH2 0xCC SWAP4 SWAP3 SWAP2 SWAP1 PUSH2 0xD4C JUMP JUMPDEST PUSH1 0x40 MLOAD DUP1 SWAP2 SUB SWAP1 RETURN JUMPDEST PUSH2 0xDD PUSH2 0x4B0 JUMP JUMPDEST STOP JUMPDEST PUSH2 0xE7 PUSH2 0x4C4 JUMP JUMPDEST PUSH1 0x40 MLOAD PUSH2 0xF4 SWAP2 SWAP1 PUSH2 0xD99 JUMP JUMPDEST PUSH1 0x40 MLOAD DUP1 SWAP2 SUB SWAP1 RETURN JUMPDEST PUSH2 0x117 PUSH1 0x4 DUP1 CALLDATASIZE SUB DUP2 ADD SWAP1 PUSH2 0x112 SWAP2 SWAP1 PUSH2 0xF15 JUMP JUMPDEST PUSH2 0x4ED JUMP JUMPDEST PUSH1 0x40 MLOAD PUSH2 0x124 SWAP2 SWAP1 PUSH2 0xFA7 JUMP JUMPDEST PUSH1 0x40 MLOAD DUP1 SWAP2 SUB SWAP1 RETURN JUMPDEST PUSH2 0x147 PUSH1 0x4 DUP1 CALLDATASIZE SUB DUP2 ADD SWAP1 PUSH2 0x142 SWAP2 SWAP1 PUSH2 0xC5B JUMP JUMPDEST PUSH2 0x7F0 JUMP JUMPDEST STOP JUMPDEST PUSH2 0x151 PUSH2 0x83C JUMP JUMPDEST PUSH1 0x40 MLOAD PUSH2 0x15E SWAP2 SWAP1 PUSH2 0x1021 JUMP JUMPDEST PUSH1 0x40 MLOAD DUP1 SWAP2 SUB SWAP1 RETURN JUMPDEST PUSH2 0x16F PUSH2 0x862 JUMP JUMPDEST PUSH1 0x40 MLOAD PUSH2 0x17C SWAP2 SWAP1 PUSH2 0xFA7 JUMP JUMPDEST PUSH1 0x40 MLOAD DUP1 SWAP2 SUB SWAP1 RETURN JUMPDEST PUSH2 0x19F PUSH1 0x4 DUP1 CALLDATASIZE SUB DUP2 ADD SWAP1 PUSH2 0x19A SWAP2 SWAP1 PUSH2 0x1068 JUMP JUMPDEST PUSH2 0x87C JUMP JUMPDEST STOP JUMPDEST PUSH2 0x1BB PUSH1 0x4 DUP1 CALLDATASIZE SUB DUP2 ADD SWAP1 PUSH2 0x1B6 SWAP2 SWAP1 PUSH2 0xC5B JUMP JUMPDEST PUSH2 0x8B0 JUMP JUMPDEST STOP JUMPDEST PUSH2 0x1D7 PUSH1 0x4 DUP1 CALLDATASIZE SUB DUP2 ADD SWAP1 PUSH2 0x1D2 SWAP2 SWAP1 PUSH2 0x114B JUMP JUMPDEST PUSH2 0x936 JUMP JUMPDEST PUSH1 0x40 MLOAD PUSH2 0x1E4 SWAP2 SWAP1 PUSH2 0x11E0 JUMP JUMPDEST PUSH1 0x40 MLOAD DUP1 SWAP2 SUB SWAP1 RETURN JUMPDEST PUSH1 0x0 PUSH1 0x60 PUSH1 0x0 DUP1 PUSH1 0x0 SWAP1 POP PUSH1 0x0 DUP1 PUSH1 0x0 PUSH1 0x1 SWAP1 POP JUMPDEST PUSH1 0x1 PUSH1 0x0 SWAP1 SLOAD SWAP1 PUSH2 0x100 EXP SWAP1 DIV PUSH20 0xFFFFFFFFFFFFFFFFFFFFFFFFFFFFFFFFFFFFFFFF AND PUSH20 0xFFFFFFFFFFFFFFFFFFFFFFFFFFFFFFFFFFFFFFFF AND PUSH4 0x62252880 DUP3 PUSH1 0x40 MLOAD DUP3 PUSH4 0xFFFFFFFF AND PUSH1 0xE0 SHL DUP2 MSTORE PUSH1 0x4 ADD PUSH2 0x25D SWAP2 SWAP1 PUSH2 0xFA7 JUMP JUMPDEST PUSH1 0x0 PUSH1 0x40 MLOAD DUP1 DUP4 SUB DUP2 DUP7 GAS STATICCALL SWAP3 POP POP POP DUP1 ISZERO PUSH2 0x29C JUMPI POP PUSH1 0x40 MLOAD RETURNDATASIZE PUSH1 0x0 DUP3 RETURNDATACOPY RETURNDATASIZE PUSH1 0x1F NOT PUSH1 0x1F DUP3 ADD AND DUP3 ADD DUP1 PUSH1 0x40 MSTORE POP DUP2 ADD SWAP1 PUSH2 0x299 SWAP2 SWAP1 PUSH2 0x1530 JUMP JUMPDEST PUSH1 0x1 JUMPDEST ISZERO PUSH2 0x3AB JUMPI PUSH1 0x1 PUSH1 0x14 SWAP1 SLOAD SWAP1 PUSH2 0x100 EXP SWAP1 DIV PUSH8 0xFFFFFFFFFFFFFFFF AND PUSH8 0xFFFFFFFFFFFFFFFF AND DUP2 PUSH1 0x0 ADD MLOAD PUSH8 0xFFFFFFFFFFFFFFFF AND EQ DUP1 ISZERO PUSH2 0x2E0 JUMPI POP DUP1 PUSH1 0xE0 ADD MLOAD ISZERO JUMPDEST DUP1 ISZERO PUSH2 0x2F2 JUMPI POP PUSH1 0x0 DUP2 PUSH2 0x100 ADD MLOAD MLOAD GT JUMPDEST ISZERO PUSH2 0x397 JUMPI PUSH1 0x0 DUP2 PUSH2 0x100 ADD MLOAD PUSH1 0x0 DUP2 MLOAD DUP2 LT PUSH2 0x312 JUMPI PUSH2 0x311 PUSH2 0x1579 JUMP JUMPDEST JUMPDEST PUSH1 0x20 MUL PUSH1 0x20 ADD ADD MLOAD DUP1 PUSH1 0x20 ADD SWAP1 MLOAD DUP2 ADD SWAP1 PUSH2 0x32D SWAP2 SWAP1 PUSH2 0x15E6 JUMP JUMPDEST SWAP1 POP DUP10 PUSH20 0xFFFFFFFFFFFFFFFFFFFFFFFFFFFFFFFFFFFFFFFF AND DUP2 PUSH20 0xFFFFFFFFFFFFFFFFFFFFFFFFFFFFFFFFFFFFFFFF AND EQ DUP1 ISZERO PUSH2 0x377 JUMPI POP DUP4 DUP3 PUSH1 0x40 ADD MLOAD PUSH8 0xFFFFFFFFFFFFFFFF AND GT JUMPDEST ISZERO PUSH2 0x395 JUMPI PUSH1 0x1 SWAP6 POP DUP3 SWAP5 POP DUP2 PUSH1 0x40 ADD MLOAD PUSH8 0xFFFFFFFFFFFFFFFF AND SWAP4 POP JUMPDEST POP JUMPDEST POP DUP1 DUP1 PUSH2 0x3A3 SWAP1 PUSH2 0x1642 JUMP JUMPDEST SWAP2 POP POP PUSH2 0x202 JUMP JUMPDEST POP DUP3 PUSH2 0x3D3 JUMPI PUSH1 0x0 DUP1 PUSH1 0x40 MLOAD DUP1 PUSH1 0x20 ADD PUSH1 0x40 MSTORE DUP1 PUSH1 0x0 DUP2 MSTORE POP SWAP1 SWAP6 POP SWAP6 POP SWAP6 POP POP POP POP PUSH2 0x4A9 JUMP JUMPDEST PUSH1 0x0 PUSH1 0x1 PUSH1 0x0 SWAP1 SLOAD SWAP1 PUSH2 0x100 EXP SWAP1 DIV PUSH20 0xFFFFFFFFFFFFFFFFFFFFFFFFFFFFFFFFFFFFFFFF AND PUSH20 0xFFFFFFFFFFFFFFFFFFFFFFFFFFFFFFFFFFFFFFFF AND PUSH4 0x62252880 DUP5 PUSH1 0x40 MLOAD DUP3 PUSH4 0xFFFFFFFF AND PUSH1 0xE0 SHL DUP2 MSTORE PUSH1 0x4 ADD PUSH2 0x430 SWAP2 SWAP1 PUSH2 0xFA7 JUMP JUMPDEST PUSH1 0x0 PUSH1 0x40 MLOAD DUP1 DUP4 SUB DUP2 DUP7 GAS STATICCALL ISZERO DUP1 ISZERO PUSH2 0x44D JUMPI RETURNDATASIZE PUSH1 0x0 DUP1 RETURNDATACOPY RETURNDATASIZE PUSH1 0x0 REVERT JUMPDEST POP POP POP POP PUSH1 0x40 MLOAD RETURNDATASIZE PUSH1 0x0 DUP3 RETURNDATACOPY RETURNDATASIZE PUSH1 0x1F NOT PUSH1 0x1F DUP3 ADD AND DUP3 ADD DUP1 PUSH1 0x40 MSTORE POP DUP2 ADD SWAP1 PUSH2 0x476 SWAP2 SWAP1 PUSH2 0x1530 JUMP JUMPDEST SWAP1 POP PUSH1 0x0 DUP1 DUP3 PUSH2 0x120 ADD MLOAD DUP1 PUSH1 0x20 ADD SWAP1 MLOAD DUP2 ADD SWAP1 PUSH2 0x494 SWAP2 SWAP1 PUSH2 0x16F7 JUMP JUMPDEST SWAP2 POP SWAP2 POP PUSH1 0x1 DUP3 DUP3 SWAP9 POP SWAP9 POP SWAP9 POP POP POP POP POP POP POP JUMPDEST SWAP2 SWAP4 SWAP1 SWAP3 POP JUMP JUMPDEST PUSH2 0x4B8 PUSH2 0xA96 JUMP JUMPDEST PUSH2 0x4C2 PUSH1 0x0 PUSH2 0xB1D JUMP JUMPDEST JUMP JUMPDEST PUSH1 0x0 DUP1 PUSH1 0x0 SWAP1 SLOAD SWAP1 PUSH2 0x100 EXP SWAP1 DIV PUSH20 0xFFFFFFFFFFFFFFFFFFFFFFFFFFFFFFFFFFFFFFFF AND SWAP1 POP SWAP1 JUMP JUMPDEST PUSH1 0x0 DUP1 PUSH1 0x1 PUSH1 0x14 SWAP1 SLOAD SWAP1 PUSH2 0x100 EXP SWAP1 DIV PUSH8 0xFFFFFFFFFFFFFFFF AND PUSH8 0xFFFFFFFFFFFFFFFF AND SUB PUSH2 0x551 JUMPI PUSH1 0x40 MLOAD PUSH32 0x8C379A000000000000000000000000000000000000000000000000000000000 DUP2 MSTORE PUSH1 0x4 ADD PUSH2 0x548 SWAP1 PUSH2 0x179F JUMP JUMPDEST PUSH1 0x40 MLOAD DUP1 SWAP2 SUB SWAP1 REVERT JUMPDEST PUSH1 0x0 DUP4 DUP4 PUSH1 0x40 MLOAD PUSH1 0x20 ADD PUSH2 0x566 SWAP3 SWAP2 SWAP1 PUSH2 0x17BF JUMP JUMPDEST PUSH1 0x40 MLOAD PUSH1 0x20 DUP2 DUP4 SUB SUB DUP2 MSTORE SWAP1 PUSH1 0x40 MSTORE SWAP1 POP PUSH1 0x0 PUSH1 0x1 PUSH8 0xFFFFFFFFFFFFFFFF DUP2 GT ISZERO PUSH2 0x594 JUMPI PUSH2 0x593 PUSH2 0xDBE JUMP JUMPDEST JUMPDEST PUSH1 0x40 MLOAD SWAP1 DUP1 DUP3 MSTORE DUP1 PUSH1 0x20 MUL PUSH1 0x20 ADD DUP3 ADD PUSH1 0x40 MSTORE DUP1 ISZERO PUSH2 0x5C7 JUMPI DUP2 PUSH1 0x20 ADD JUMPDEST PUSH1 0x60 DUP2 MSTORE PUSH1 0x20 ADD SWAP1 PUSH1 0x1 SWAP1 SUB SWAP1 DUP2 PUSH2 0x5B2 JUMPI SWAP1 POP JUMPDEST POP SWAP1 POP DUP6 PUSH1 0x40 MLOAD PUSH1 0x20 ADD PUSH2 0x5DB SWAP2 SWAP1 PUSH2 0xD99 JUMP JUMPDEST PUSH1 0x40 MLOAD PUSH1 0x20 DUP2 DUP4 SUB SUB DUP2 MSTORE SWAP1 PUSH1 0x40 MSTORE DUP2 PUSH1 0x0 DUP2 MLOAD DUP2 LT PUSH2 0x5FE JUMPI PUSH2 0x5FD PUSH2 0x1579 JUMP JUMPDEST JUMPDEST PUSH1 0x20 MUL PUSH1 0x20 ADD ADD DUP2 SWAP1 MSTORE POP PUSH1 0x0 PUSH1 0x40 MLOAD DUP1 PUSH2 0x140 ADD PUSH1 0x40 MSTORE DUP1 PUSH1 0x1 PUSH1 0x14 SWAP1 SLOAD SWAP1 PUSH2 0x100 EXP SWAP1 DIV PUSH8 0xFFFFFFFFFFFFFFFF AND PUSH8 0xFFFFFFFFFFFFFFFF AND DUP2 MSTORE PUSH1 0x20 ADD PUSH1 0x0 PUSH8 0xFFFFFFFFFFFFFFFF AND DUP2 MSTORE PUSH1 0x20 ADD PUSH1 0x0 PUSH8 0xFFFFFFFFFFFFFFFF AND DUP2 MSTORE PUSH1 0x20 ADD PUSH1 0x0 PUSH8 0xFFFFFFFFFFFFFFFF AND DUP2 MSTORE PUSH1 0x20 ADD PUSH2 0x678 PUSH2 0xBE1 JUMP JUMPDEST PUSH20 0xFFFFFFFFFFFFFFFFFFFFFFFFFFFFFFFFFFFFFFFF AND DUP2 MSTORE PUSH1 0x20 ADD PUSH1 0x0 PUSH8 0xFFFFFFFFFFFFFFFF AND DUP2 MSTORE PUSH1 0x20 ADD PUSH1 0x0 PUSH1 0x3 DUP2 GT ISZERO PUSH2 0x6B8 JUMPI PUSH2 0x6B7 PUSH2 0x17EF JUMP JUMPDEST JUMPDEST DUP2 MSTORE PUSH1 0x20 ADD PUSH1 0x0 ISZERO ISZERO DUP2 MSTORE PUSH1 0x20 ADD DUP4 DUP2 MSTORE PUSH1 0x20 ADD DUP5 DUP2 MSTORE POP SWAP1 POP PUSH1 0x0 PUSH1 0x1 PUSH1 0x0 SWAP1 SLOAD SWAP1 PUSH2 0x100 EXP SWAP1 DIV PUSH20 0xFFFFFFFFFFFFFFFFFFFFFFFFFFFFFFFFFFFFFFFF AND PUSH20 0xFFFFFFFFFFFFFFFFFFFFFFFFFFFFFFFFFFFFFFFF AND PUSH4 0xB82916CB DUP4 PUSH1 0x40 MLOAD DUP3 PUSH4 0xFFFFFFFF AND PUSH1 0xE0 SHL DUP2 MSTORE PUSH1 0x4 ADD PUSH2 0x72F SWAP2 SWAP1 PUSH2 0x1AE5 JUMP JUMPDEST PUSH1 0x20 PUSH1 0x40 MLOAD DUP1 DUP4 SUB DUP2 PUSH1 0x0 DUP8 GAS CALL ISZERO DUP1 ISZERO PUSH2 0x74E JUMPI RETURNDATASIZE PUSH1 0x0 DUP1 RETURNDATACOPY RETURNDATASIZE PUSH1 0x0 REVERT JUMPDEST POP POP POP POP PUSH1 0x40 MLOAD RETURNDATASIZE PUSH1 0x1F NOT PUSH1 0x1F DUP3 ADD AND DUP3 ADD DUP1 PUSH1 0x40 MSTORE POP DUP2 ADD SWAP1 PUSH2 0x772 SWAP2 SWAP1 PUSH2 0x1B40 JUMP JUMPDEST SWAP1 POP DUP8 PUSH20 0xFFFFFFFFFFFFFFFFFFFFFFFFFFFFFFFFFFFFFFFF AND PUSH2 0x793 PUSH2 0xBE1 JUMP JUMPDEST PUSH20 0xFFFFFFFFFFFFFFFFFFFFFFFFFFFFFFFFFFFFFFFF AND PUSH32 0x3CDCE538B6DB111FCF97C8CDFC0F65DCD4C7EAEEA28ABF410F46AD76DAED828B DUP10 DUP10 PUSH1 0x40 MLOAD PUSH2 0x7DA SWAP3 SWAP2 SWAP1 PUSH2 0x17BF JUMP JUMPDEST PUSH1 0x40 MLOAD DUP1 SWAP2 SUB SWAP1 LOG3 DUP1 SWAP5 POP POP POP POP POP SWAP4 SWAP3 POP POP POP JUMP JUMPDEST PUSH2 0x7F8 PUSH2 0xA96 JUMP JUMPDEST DUP1 PUSH1 0x1 PUSH1 0x0 PUSH2 0x100 EXP DUP2 SLOAD DUP2 PUSH20 0xFFFFFFFFFFFFFFFFFFFFFFFFFFFFFFFFFFFFFFFF MUL NOT AND SWAP1 DUP4 PUSH20 0xFFFFFFFFFFFFFFFFFFFFFFFFFFFFFFFFFFFFFFFF AND MUL OR SWAP1 SSTORE POP POP JUMP JUMPDEST PUSH1 0x1 PUSH1 0x0 SWAP1 SLOAD SWAP1 PUSH2 0x100 EXP SWAP1 DIV PUSH20 0xFFFFFFFFFFFFFFFFFFFFFFFFFFFFFFFFFFFFFFFF AND DUP2 JUMP JUMPDEST PUSH1 0x1 PUSH1 0x14 SWAP1 SLOAD SWAP1 PUSH2 0x100 EXP SWAP1 DIV PUSH8 0xFFFFFFFFFFFFFFFF AND DUP2 JUMP JUMPDEST PUSH2 0x884 PUSH2 0xA96 JUMP JUMPDEST DUP1 PUSH1 0x1 PUSH1 0x14 PUSH2 0x100 EXP DUP2 SLOAD DUP2 PUSH8 0xFFFFFFFFFFFFFFFF MUL NOT AND SWAP1 DUP4 PUSH8 0xFFFFFFFFFFFFFFFF AND MUL OR SWAP1 SSTORE POP POP JUMP JUMPDEST PUSH2 0x8B8 PUSH2 0xA96 JUMP JUMPDEST PUSH1 0x0 PUSH20 0xFFFFFFFFFFFFFFFFFFFFFFFFFFFFFFFFFFFFFFFF AND DUP2 PUSH20 0xFFFFFFFFFFFFFFFFFFFFFFFFFFFFFFFFFFFFFFFF AND SUB PUSH2 0x92A JUMPI PUSH1 0x0 PUSH1 0x40 MLOAD PUSH32 0x1E4FBDF700000000000000000000000000000000000000000000000000000000 DUP2 MSTORE PUSH1 0x4 ADD PUSH2 0x921 SWAP2 SWAP1 PUSH2 0xD99 JUMP JUMPDEST PUSH1 0x40 MLOAD DUP1 SWAP2 SUB SWAP1 REVERT JUMPDEST PUSH2 0x933 DUP2 PUSH2 0xB1D JUMP JUMPDEST POP JUMP JUMPDEST PUSH1 0x0 PUSH1 0x1 PUSH1 0x14 SWAP1 SLOAD SWAP1 PUSH2 0x100 EXP SWAP1 DIV PUSH8 0xFFFFFFFFFFFFFFFF AND PUSH8 0xFFFFFFFFFFFFFFFF AND DUP7 PUSH8 0xFFFFFFFFFFFFFFFF AND EQ PUSH2 0x9A4 JUMPI PUSH1 0x40 MLOAD PUSH32 0x8C379A000000000000000000000000000000000000000000000000000000000 DUP2 MSTORE PUSH1 0x4 ADD PUSH2 0x99B SWAP1 PUSH2 0x1BB9 JUMP JUMPDEST PUSH1 0x40 MLOAD DUP1 SWAP2 SUB SWAP1 REVERT JUMPDEST PUSH1 0x1 DUP4 DUP4 SWAP1 POP EQ PUSH2 0x9EA JUMPI PUSH1 0x40 MLOAD PUSH32 0x8C379A000000000000000000000000000000000000000000000000000000000 DUP2 MSTORE PUSH1 0x4 ADD PUSH2 0x9E1 SWAP1 PUSH2 0x1C25 JUMP JUMPDEST PUSH1 0x40 MLOAD DUP1 SWAP2 SUB SWAP1 REVERT JUMPDEST PUSH1 0x0 DUP1 DUP7 DUP7 DUP2 ADD SWAP1 PUSH2 0x9FC SWAP2 SWAP1 PUSH2 0x1C45 JUMP JUMPDEST SWAP2 POP SWAP2 POP PUSH1 0x0 DUP3 MLOAD GT PUSH2 0xA44 JUMPI PUSH1 0x40 MLOAD PUSH32 0x8C379A000000000000000000000000000000000000000000000000000000000 DUP2 MSTORE PUSH1 0x4 ADD PUSH2 0xA3B SWAP1 PUSH2 0x1CED JUMP JUMPDEST PUSH1 0x40 MLOAD DUP1 SWAP2 SUB SWAP1 REVERT JUMPDEST TIMESTAMP DUP2 GT ISZERO PUSH2 0xA87 JUMPI PUSH1 0x40 MLOAD PUSH32 0x8C379A000000000000000000000000000000000000000000000000000000000 DUP2 MSTORE PUSH1 0x4 ADD PUSH2 0xA7E SWAP1 PUSH2 0x1D7F JUMP JUMPDEST PUSH1 0x40 MLOAD DUP1 SWAP2 SUB SWAP1 REVERT JUMPDEST PUSH1 0x1 SWAP3 POP POP POP SWAP6 SWAP5 POP POP POP POP POP JUMP JUMPDEST PUSH2 0xA9E PUSH2 0xBE1 JUMP JUMPDEST PUSH20 0xFFFFFFFFFFFFFFFFFFFFFFFFFFFFFFFFFFFFFFFF AND PUSH2 0xABC PUSH2 0x4C4 JUMP JUMPDEST PUSH20 0xFFFFFFFFFFFFFFFFFFFFFFFFFFFFFFFFFFFFFFFF AND EQ PUSH2 0xB1B JUMPI PUSH2 0xADF PUSH2 0xBE1 JUMP JUMPDEST PUSH1 0x40 MLOAD PUSH32 0x118CDAA700000000000000000000000000000000000000000000000000000000 DUP2 MSTORE PUSH1 0x4 ADD PUSH2 0xB12 SWAP2 SWAP1 PUSH2 0xD99 JUMP JUMPDEST PUSH1 0x40 MLOAD DUP1 SWAP2 SUB SWAP1 REVERT JUMPDEST JUMP JUMPDEST PUSH1 0x0 DUP1 PUSH1 0x0 SWAP1 SLOAD SWAP1 PUSH2 0x100 EXP SWAP1 DIV PUSH20 0xFFFFFFFFFFFFFFFFFFFFFFFFFFFFFFFFFFFFFFFF AND SWAP1 POP DUP2 PUSH1 0x0 DUP1 PUSH2 0x100 EXP DUP2 SLOAD DUP2 PUSH20 0xFFFFFFFFFFFFFFFFFFFFFFFFFFFFFFFFFFFFFFFF MUL NOT AND SWAP1 DUP4 PUSH20 0xFFFFFFFFFFFFFFFFFFFFFFFFFFFFFFFFFFFFFFFF AND MUL OR SWAP1 SSTORE POP DUP2 PUSH20 0xFFFFFFFFFFFFFFFFFFFFFFFFFFFFFFFFFFFFFFFF AND DUP2 PUSH20 0xFFFFFFFFFFFFFFFFFFFFFFFFFFFFFFFFFFFFFFFF AND PUSH32 0x8BE0079C531659141344CD1FD0A4F28419497F9722A3DAAFE3B4186F6B6457E0 PUSH1 0x40 MLOAD PUSH1 0x40 MLOAD DUP1 SWAP2 SUB SWAP1 LOG3 POP POP JUMP JUMPDEST PUSH1 0x0 CALLER SWAP1 POP SWAP1 JUMP JUMPDEST PUSH1 0x0 PUSH1 0x40 MLOAD SWAP1 POP SWAP1 JUMP JUMPDEST PUSH1 0x0 DUP1 REVERT JUMPDEST PUSH1 0x0 DUP1 REVERT JUMPDEST PUSH1 0x0 PUSH20 0xFFFFFFFFFFFFFFFFFFFFFFFFFFFFFFFFFFFFFFFF DUP3 AND SWAP1 POP SWAP2 SWAP1 POP JUMP JUMPDEST PUSH1 0x0 PUSH2 0xC28 DUP3 PUSH2 0xBFD JUMP JUMPDEST SWAP1 POP SWAP2 SWAP1 POP JUMP JUMPDEST PUSH2 0xC38 DUP2 PUSH2 0xC1D JUMP JUMPDEST DUP2 EQ PUSH2 0xC43 JUMPI PUSH1 0x0 DUP1 REVERT JUMPDEST POP JUMP JUMPDEST PUSH1 0x0 DUP2 CALLDATALOAD SWAP1 POP PUSH2 0xC55 DUP2 PUSH2 0xC2F JUMP JUMPDEST SWAP3 SWAP2 POP POP JUMP JUMPDEST PUSH1 0x0 PUSH1 0x20 DUP3 DUP5 SUB SLT ISZERO PUSH2 0xC71 JUMPI PUSH2 0xC70 PUSH2 0xBF3 JUMP JUMPDEST JUMPDEST PUSH1 0x0 PUSH2 0xC7F DUP5 DUP3 DUP6 ADD PUSH2 0xC46 JUMP JUMPDEST SWAP2 POP POP SWAP3 SWAP2 POP POP JUMP JUMPDEST PUSH1 0x0 DUP2 ISZERO ISZERO SWAP1 POP SWAP2 SWAP1 POP JUMP JUMPDEST PUSH2 0xC9D DUP2 PUSH2 0xC88 JUMP JUMPDEST DUP3 MSTORE POP POP JUMP JUMPDEST PUSH1 0x0 DUP2 MLOAD SWAP1 POP SWAP2 SWAP1 POP JUMP JUMPDEST PUSH1 0x0 DUP3 DUP3 MSTORE PUSH1 0x20 DUP3 ADD SWAP1 POP SWAP3 SWAP2 POP POP JUMP JUMPDEST PUSH1 0x0 JUMPDEST DUP4 DUP2 LT ISZERO PUSH2 0xCDD JUMPI DUP1 DUP3 ADD MLOAD DUP2 DUP5 ADD MSTORE PUSH1 0x20 DUP2 ADD SWAP1 POP PUSH2 0xCC2 JUMP JUMPDEST PUSH1 0x0 DUP5 DUP5 ADD MSTORE POP POP POP POP JUMP JUMPDEST PUSH1 0x0 PUSH1 0x1F NOT PUSH1 0x1F DUP4 ADD AND SWAP1 POP SWAP2 SWAP1 POP JUMP JUMPDEST PUSH1 0x0 PUSH2 0xD05 DUP3 PUSH2 0xCA3 JUMP JUMPDEST PUSH2 0xD0F DUP2 DUP6 PUSH2 0xCAE JUMP JUMPDEST SWAP4 POP PUSH2 0xD1F DUP2 DUP6 PUSH1 0x20 DUP7 ADD PUSH2 0xCBF JUMP JUMPDEST PUSH2 0xD28 DUP2 PUSH2 0xCE9 JUMP JUMPDEST DUP5 ADD SWAP2 POP POP SWAP3 SWAP2 POP POP JUMP JUMPDEST PUSH1 0x0 DUP2 SWAP1 POP SWAP2 SWAP1 POP JUMP JUMPDEST PUSH2 0xD46 DUP2 PUSH2 0xD33 JUMP JUMPDEST DUP3 MSTORE POP POP JUMP JUMPDEST PUSH1 0x0 PUSH1 0x60 DUP3 ADD SWAP1 POP PUSH2 0xD61 PUSH1 0x0 DUP4 ADD DUP7 PUSH2 0xC94 JUMP JUMPDEST DUP2 DUP2 SUB PUSH1 0x20 DUP4 ADD MSTORE PUSH2 0xD73 DUP2 DUP6 PUSH2 0xCFA JUMP JUMPDEST SWAP1 POP PUSH2 0xD82 PUSH1 0x40 DUP4 ADD DUP5 PUSH2 0xD3D JUMP JUMPDEST SWAP5 SWAP4 POP POP POP POP JUMP JUMPDEST PUSH2 0xD93 DUP2 PUSH2 0xC1D JUMP JUMPDEST DUP3 MSTORE POP POP JUMP JUMPDEST PUSH1 0x0 PUSH1 0x20 DUP3 ADD SWAP1 POP PUSH2 0xDAE PUSH1 0x0 DUP4 ADD DUP5 PUSH2 0xD8A JUMP JUMPDEST SWAP3 SWAP2 POP POP JUMP JUMPDEST PUSH1 0x0 DUP1 REVERT JUMPDEST PUSH1 0x0 DUP1 REVERT JUMPDEST PUSH32 0x4E487B7100000000000000000000000000000000000000000000000000000000 PUSH1 0x0 MSTORE PUSH1 0x41 PUSH1 0x4 MSTORE PUSH1 0x24 PUSH1 0x0 REVERT JUMPDEST PUSH2 0xDF6 DUP3 PUSH2 0xCE9 JUMP JUMPDEST DUP2 ADD DUP2 DUP2 LT PUSH8 0xFFFFFFFFFFFFFFFF DUP3 GT OR ISZERO PUSH2 0xE15 JUMPI PUSH2 0xE14 PUSH2 0xDBE JUMP JUMPDEST JUMPDEST DUP1 PUSH1 0x40 MSTORE POP POP POP JUMP JUMPDEST PUSH1 0x0 PUSH2 0xE28 PUSH2 0xBE9 JUMP JUMPDEST SWAP1 POP PUSH2 0xE34 DUP3 DUP3 PUSH2 0xDED JUMP JUMPDEST SWAP2 SWAP1 POP JUMP JUMPDEST PUSH1 0x0 PUSH8 0xFFFFFFFFFFFFFFFF DUP3 GT ISZERO PUSH2 0xE54 JUMPI PUSH2 0xE53 PUSH2 0xDBE JUMP JUMPDEST JUMPDEST PUSH2 0xE5D DUP3 PUSH2 0xCE9 JUMP JUMPDEST SWAP1 POP PUSH1 0x20 DUP2 ADD SWAP1 POP SWAP2 SWAP1 POP JUMP JUMPDEST DUP3 DUP2 DUP4 CALLDATACOPY PUSH1 0x0 DUP4 DUP4 ADD MSTORE POP POP POP JUMP JUMPDEST PUSH1 0x0 PUSH2 0xE8C PUSH2 0xE87 DUP5 PUSH2 0xE39 JUMP JUMPDEST PUSH2 0xE1E JUMP JUMPDEST SWAP1 POP DUP3 DUP2 MSTORE PUSH1 0x20 DUP2 ADD DUP5 DUP5 DUP5 ADD GT ISZERO PUSH2 0xEA8 JUMPI PUSH2 0xEA7 PUSH2 0xDB9 JUMP JUMPDEST JUMPDEST PUSH2 0xEB3 DUP5 DUP3 DUP6 PUSH2 0xE6A JUMP JUMPDEST POP SWAP4 SWAP3 POP POP POP JUMP JUMPDEST PUSH1 0x0 DUP3 PUSH1 0x1F DUP4 ADD SLT PUSH2 0xED0 JUMPI PUSH2 0xECF PUSH2 0xDB4 JUMP JUMPDEST JUMPDEST DUP2 CALLDATALOAD PUSH2 0xEE0 DUP5 DUP3 PUSH1 0x20 DUP7 ADD PUSH2 0xE79 JUMP JUMPDEST SWAP2 POP POP SWAP3 SWAP2 POP POP JUMP JUMPDEST PUSH2 0xEF2 DUP2 PUSH2 0xD33 JUMP JUMPDEST DUP2 EQ PUSH2 0xEFD JUMPI PUSH1 0x0 DUP1 REVERT JUMPDEST POP JUMP JUMPDEST PUSH1 0x0 DUP2 CALLDATALOAD SWAP1 POP PUSH2 0xF0F DUP2 PUSH2 0xEE9 JUMP JUMPDEST SWAP3 SWAP2 POP POP JUMP JUMPDEST PUSH1 0x0 DUP1 PUSH1 0x0 PUSH1 0x60 DUP5 DUP7 SUB SLT ISZERO PUSH2 0xF2E JUMPI PUSH2 0xF2D PUSH2 0xBF3 JUMP JUMPDEST JUMPDEST PUSH1 0x0 PUSH2 0xF3C DUP7 DUP3 DUP8 ADD PUSH2 0xC46 JUMP JUMPDEST SWAP4 POP POP PUSH1 0x20 DUP5 ADD CALLDATALOAD PUSH8 0xFFFFFFFFFFFFFFFF DUP2 GT ISZERO PUSH2 0xF5D JUMPI PUSH2 0xF5C PUSH2 0xBF8 JUMP JUMPDEST JUMPDEST PUSH2 0xF69 DUP7 DUP3 DUP8 ADD PUSH2 0xEBB JUMP JUMPDEST SWAP3 POP POP PUSH1 0x40 PUSH2 0xF7A DUP7 DUP3 DUP8 ADD PUSH2 0xF00 JUMP JUMPDEST SWAP2 POP POP SWAP3 POP SWAP3 POP SWAP3 JUMP JUMPDEST PUSH1 0x0 PUSH8 0xFFFFFFFFFFFFFFFF DUP3 AND SWAP1 POP SWAP2 SWAP1 POP JUMP JUMPDEST PUSH2 0xFA1 DUP2 PUSH2 0xF84 JUMP JUMPDEST DUP3 MSTORE POP POP JUMP JUMPDEST PUSH1 0x0 PUSH1 0x20 DUP3 ADD SWAP1 POP PUSH2 0xFBC PUSH1 0x0 DUP4 ADD DUP5 PUSH2 0xF98 JUMP JUMPDEST SWAP3 SWAP2 POP POP JUMP JUMPDEST PUSH1 0x0 DUP2 SWAP1 POP SWAP2 SWAP1 POP JUMP JUMPDEST PUSH1 0x0 PUSH2 0xFE7 PUSH2 0xFE2 PUSH2 0xFDD DUP5 PUSH2 0xBFD JUMP JUMPDEST PUSH2 0xFC2 JUMP JUMPDEST PUSH2 0xBFD JUMP JUMPDEST SWAP1 POP SWAP2 SWAP1 POP JUMP JUMPDEST PUSH1 0x0 PUSH2 0xFF9 DUP3 PUSH2 0xFCC JUMP JUMPDEST SWAP1 POP SWAP2 SWAP1 POP JUMP JUMPDEST PUSH1 0x0 PUSH2 0x100B DUP3 PUSH2 0xFEE JUMP JUMPDEST SWAP1 POP SWAP2 SWAP1 POP JUMP JUMPDEST PUSH2 0x101B DUP2 PUSH2 0x1000 JUMP JUMPDEST DUP3 MSTORE POP POP JUMP JUMPDEST PUSH1 0x0 PUSH1 0x20 DUP3 ADD SWAP1 POP PUSH2 0x1036 PUSH1 0x0 DUP4 ADD DUP5 PUSH2 0x1012 JUMP JUMPDEST SWAP3 SWAP2 POP POP JUMP JUMPDEST PUSH2 0x1045 DUP2 PUSH2 0xF84 JUMP JUMPDEST DUP2 EQ PUSH2 0x1050 JUMPI PUSH1 0x0 DUP1 REVERT JUMPDEST POP JUMP JUMPDEST PUSH1 0x0 DUP2 CALLDATALOAD SWAP1 POP PUSH2 0x1062 DUP2 PUSH2 0x103C JUMP JUMPDEST SWAP3 SWAP2 POP POP JUMP JUMPDEST PUSH1 0x0 PUSH1 0x20 DUP3 DUP5 SUB SLT ISZERO PUSH2 0x107E JUMPI PUSH2 0x107D PUSH2 0xBF3 JUMP JUMPDEST JUMPDEST PUSH1 0x0 PUSH2 0x108C DUP5 DUP3 DUP6 ADD PUSH2 0x1053 JUMP JUMPDEST SWAP2 POP POP SWAP3 SWAP2 POP POP JUMP JUMPDEST PUSH1 0x0 DUP1 REVERT JUMPDEST PUSH1 0x0 DUP1 REVERT JUMPDEST PUSH1 0x0 DUP1 DUP4 PUSH1 0x1F DUP5 ADD SLT PUSH2 0x10B5 JUMPI PUSH2 0x10B4 PUSH2 0xDB4 JUMP JUMPDEST JUMPDEST DUP3 CALLDATALOAD SWAP1 POP PUSH8 0xFFFFFFFFFFFFFFFF DUP2 GT ISZERO PUSH2 0x10D2 JUMPI PUSH2 0x10D1 PUSH2 0x1095 JUMP JUMPDEST JUMPDEST PUSH1 0x20 DUP4 ADD SWAP2 POP DUP4 PUSH1 0x1 DUP3 MUL DUP4 ADD GT ISZERO PUSH2 0x10EE JUMPI PUSH2 0x10ED PUSH2 0x109A JUMP JUMPDEST JUMPDEST SWAP3 POP SWAP3 SWAP1 POP JUMP JUMPDEST PUSH1 0x0 DUP1 DUP4 PUSH1 0x1F DUP5 ADD SLT PUSH2 0x110B JUMPI PUSH2 0x110A PUSH2 0xDB4 JUMP JUMPDEST JUMPDEST DUP3 CALLDATALOAD SWAP1 POP PUSH8 0xFFFFFFFFFFFFFFFF DUP2 GT ISZERO PUSH2 0x1128 JUMPI PUSH2 0x1127 PUSH2 0x1095 JUMP JUMPDEST JUMPDEST PUSH1 0x20 DUP4 ADD SWAP2 POP DUP4 PUSH1 0x20 DUP3 MUL DUP4 ADD GT ISZERO PUSH2 0x1144 JUMPI PUSH2 0x1143 PUSH2 0x109A JUMP JUMPDEST JUMPDEST SWAP3 POP SWAP3 SWAP1 POP JUMP JUMPDEST PUSH1 0x0 DUP1 PUSH1 0x0 DUP1 PUSH1 0x0 PUSH1 0x60 DUP7 DUP9 SUB SLT ISZERO PUSH2 0x1167 JUMPI PUSH2 0x1166 PUSH2 0xBF3 JUMP JUMPDEST JUMPDEST PUSH1 0x0 PUSH2 0x1175 DUP9 DUP3 DUP10 ADD PUSH2 0x1053 JUMP JUMPDEST SWAP6 POP POP PUSH1 0x20 DUP7 ADD CALLDATALOAD PUSH8 0xFFFFFFFFFFFFFFFF DUP2 GT ISZERO PUSH2 0x1196 JUMPI PUSH2 0x1195 PUSH2 0xBF8 JUMP JUMPDEST JUMPDEST PUSH2 0x11A2 DUP9 DUP3 DUP10 ADD PUSH2 0x109F JUMP JUMPDEST SWAP5 POP SWAP5 POP POP PUSH1 0x40 DUP7 ADD CALLDATALOAD PUSH8 0xFFFFFFFFFFFFFFFF DUP2 GT ISZERO PUSH2 0x11C5 JUMPI PUSH2 0x11C4 PUSH2 0xBF8 JUMP JUMPDEST JUMPDEST PUSH2 0x11D1 DUP9 DUP3 DUP10 ADD PUSH2 0x10F5 JUMP JUMPDEST SWAP3 POP SWAP3 POP POP SWAP3 SWAP6 POP SWAP3 SWAP6 SWAP1 SWAP4 POP JUMP JUMPDEST PUSH1 0x0 PUSH1 0x20 DUP3 ADD SWAP1 POP PUSH2 0x11F5 PUSH1 0x0 DUP4 ADD DUP5 PUSH2 0xC94 JUMP JUMPDEST SWAP3 SWAP2 POP POP JUMP JUMPDEST PUSH1 0x0 DUP1 REVERT JUMPDEST PUSH1 0x0 DUP1 REVERT JUMPDEST PUSH1 0x0 DUP2 MLOAD SWAP1 POP PUSH2 0x1214 DUP2 PUSH2 0x103C JUMP JUMPDEST SWAP3 SWAP2 POP POP JUMP JUMPDEST PUSH1 0x0 DUP2 MLOAD SWAP1 POP PUSH2 0x1229 DUP2 PUSH2 0xC2F JUMP JUMPDEST SWAP3 SWAP2 POP POP JUMP JUMPDEST PUSH1 0x4 DUP2 LT PUSH2 0x123C JUMPI PUSH1 0x0 DUP1 REVERT JUMPDEST POP JUMP JUMPDEST PUSH1 0x0 DUP2 MLOAD SWAP1 POP PUSH2 0x124E DUP2 PUSH2 0x122F JUMP JUMPDEST SWAP3 SWAP2 POP POP JUMP JUMPDEST PUSH2 0x125D DUP2 PUSH2 0xC88 JUMP JUMPDEST DUP2 EQ PUSH2 0x1268 JUMPI PUSH1 0x0 DUP1 REVERT JUMPDEST POP JUMP JUMPDEST PUSH1 0x0 DUP2 MLOAD SWAP1 POP PUSH2 0x127A DUP2 PUSH2 0x1254 JUMP JUMPDEST SWAP3 SWAP2 POP POP JUMP JUMPDEST PUSH1 0x0 PUSH8 0xFFFFFFFFFFFFFFFF DUP3 GT ISZERO PUSH2 0x129B JUMPI PUSH2 0x129A PUSH2 0xDBE JUMP JUMPDEST JUMPDEST PUSH1 0x20 DUP3 MUL SWAP1 POP PUSH1 0x20 DUP2 ADD SWAP1 POP SWAP2 SWAP1 POP JUMP JUMPDEST PUSH1 0x0 PUSH8 0xFFFFFFFFFFFFFFFF DUP3 GT ISZERO PUSH2 0x12C7 JUMPI PUSH2 0x12C6 PUSH2 0xDBE JUMP JUMPDEST JUMPDEST PUSH2 0x12D0 DUP3 PUSH2 0xCE9 JUMP JUMPDEST SWAP1 POP PUSH1 0x20 DUP2 ADD SWAP1 POP SWAP2 SWAP1 POP JUMP JUMPDEST PUSH1 0x0 PUSH2 0x12F0 PUSH2 0x12EB DUP5 PUSH2 0x12AC JUMP JUMPDEST PUSH2 0xE1E JUMP JUMPDEST SWAP1 POP DUP3 DUP2 MSTORE PUSH1 0x20 DUP2 ADD DUP5 DUP5 DUP5 ADD GT ISZERO PUSH2 0x130C JUMPI PUSH2 0x130B PUSH2 0xDB9 JUMP JUMPDEST JUMPDEST PUSH2 0x1317 DUP5 DUP3 DUP6 PUSH2 0xCBF JUMP JUMPDEST POP SWAP4 SWAP3 POP POP POP JUMP JUMPDEST PUSH1 0x0 DUP3 PUSH1 0x1F DUP4 ADD SLT PUSH2 0x1334 JUMPI PUSH2 0x1333 PUSH2 0xDB4 JUMP JUMPDEST JUMPDEST DUP2 MLOAD PUSH2 0x1344 DUP5 DUP3 PUSH1 0x20 DUP7 ADD PUSH2 0x12DD JUMP JUMPDEST SWAP2 POP POP SWAP3 SWAP2 POP POP JUMP JUMPDEST PUSH1 0x0 PUSH2 0x1360 PUSH2 0x135B DUP5 PUSH2 0x1280 JUMP JUMPDEST PUSH2 0xE1E JUMP JUMPDEST SWAP1 POP DUP1 DUP4 DUP3 MSTORE PUSH1 0x20 DUP3 ADD SWAP1 POP PUSH1 0x20 DUP5 MUL DUP4 ADD DUP6 DUP2 GT ISZERO PUSH2 0x1383 JUMPI PUSH2 0x1382 PUSH2 0x109A JUMP JUMPDEST JUMPDEST DUP4 JUMPDEST DUP2 DUP2 LT ISZERO PUSH2 0x13CA JUMPI DUP1 MLOAD PUSH8 0xFFFFFFFFFFFFFFFF DUP2 GT ISZERO PUSH2 0x13A8 JUMPI PUSH2 0x13A7 PUSH2 0xDB4 JUMP JUMPDEST JUMPDEST DUP1 DUP7 ADD PUSH2 0x13B5 DUP10 DUP3 PUSH2 0x131F JUMP JUMPDEST DUP6 MSTORE PUSH1 0x20 DUP6 ADD SWAP5 POP POP POP PUSH1 0x20 DUP2 ADD SWAP1 POP PUSH2 0x1385 JUMP JUMPDEST POP POP POP SWAP4 SWAP3 POP POP POP JUMP JUMPDEST PUSH1 0x0 DUP3 PUSH1 0x1F DUP4 ADD SLT PUSH2 0x13E9 JUMPI PUSH2 0x13E8 PUSH2 0xDB4 JUMP JUMPDEST JUMPDEST DUP2 MLOAD PUSH2 0x13F9 DUP5 DUP3 PUSH1 0x20 DUP7 ADD PUSH2 0x134D JUMP JUMPDEST SWAP2 POP POP SWAP3 SWAP2 POP POP JUMP JUMPDEST PUSH1 0x0 PUSH2 0x140 DUP3 DUP5 SUB SLT ISZERO PUSH2 0x1419 JUMPI PUSH2 0x1418 PUSH2 0x11FB JUMP JUMPDEST JUMPDEST PUSH2 0x1424 PUSH2 0x140 PUSH2 0xE1E JUMP JUMPDEST SWAP1 POP PUSH1 0x0 PUSH2 0x1434 DUP5 DUP3 DUP6 ADD PUSH2 0x1205 JUMP JUMPDEST PUSH1 0x0 DUP4 ADD MSTORE POP PUSH1 0x20 PUSH2 0x1448 DUP5 DUP3 DUP6 ADD PUSH2 0x1205 JUMP JUMPDEST PUSH1 0x20 DUP4 ADD MSTORE POP PUSH1 0x40 PUSH2 0x145C DUP5 DUP3 DUP6 ADD PUSH2 0x1205 JUMP JUMPDEST PUSH1 0x40 DUP4 ADD MSTORE POP PUSH1 0x60 PUSH2 0x1470 DUP5 DUP3 DUP6 ADD PUSH2 0x1205 JUMP JUMPDEST PUSH1 0x60 DUP4 ADD MSTORE POP PUSH1 0x80 PUSH2 0x1484 DUP5 DUP3 DUP6 ADD PUSH2 0x121A JUMP JUMPDEST PUSH1 0x80 DUP4 ADD MSTORE POP PUSH1 0xA0 PUSH2 0x1498 DUP5 DUP3 DUP6 ADD PUSH2 0x1205 JUMP JUMPDEST PUSH1 0xA0 DUP4 ADD MSTORE POP PUSH1 0xC0 PUSH2 0x14AC DUP5 DUP3 DUP6 ADD PUSH2 0x123F JUMP JUMPDEST PUSH1 0xC0 DUP4 ADD MSTORE POP PUSH1 0xE0 PUSH2 0x14C0 DUP5 DUP3 DUP6 ADD PUSH2 0x126B JUMP JUMPDEST PUSH1 0xE0 DUP4 ADD MSTORE POP PUSH2 0x100 DUP3 ADD MLOAD PUSH8 0xFFFFFFFFFFFFFFFF DUP2 GT ISZERO PUSH2 0x14E5 JUMPI PUSH2 0x14E4 PUSH2 0x1200 JUMP JUMPDEST JUMPDEST PUSH2 0x14F1 DUP5 DUP3 DUP6 ADD PUSH2 0x13D4 JUMP JUMPDEST PUSH2 0x100 DUP4 ADD MSTORE POP PUSH2 0x120 DUP3 ADD MLOAD PUSH8 0xFFFFFFFFFFFFFFFF DUP2 GT ISZERO PUSH2 0x1517 JUMPI PUSH2 0x1516 PUSH2 0x1200 JUMP JUMPDEST JUMPDEST PUSH2 0x1523 DUP5 DUP3 DUP6 ADD PUSH2 0x131F JUMP JUMPDEST PUSH2 0x120 DUP4 ADD MSTORE POP SWAP3 SWAP2 POP POP JUMP JUMPDEST PUSH1 0x0 PUSH1 0x20 DUP3 DUP5 SUB SLT ISZERO PUSH2 0x1546 JUMPI PUSH2 0x1545 PUSH2 0xBF3 JUMP JUMPDEST JUMPDEST PUSH1 0x0 DUP3 ADD MLOAD PUSH8 0xFFFFFFFFFFFFFFFF DUP2 GT ISZERO PUSH2 0x1564 JUMPI PUSH2 0x1563 PUSH2 0xBF8 JUMP JUMPDEST JUMPDEST PUSH2 0x1570 DUP5 DUP3 DUP6 ADD PUSH2 0x1402 JUMP JUMPDEST SWAP2 POP POP SWAP3 SWAP2 POP POP JUMP JUMPDEST PUSH32 0x4E487B7100000000000000000000000000000000000000000000000000000000 PUSH1 0x0 MSTORE PUSH1 0x32 PUSH1 0x4 MSTORE PUSH1 0x24 PUSH1 0x0 REVERT JUMPDEST PUSH1 0x0 PUSH2 0x15B3 DUP3 PUSH2 0xBFD JUMP JUMPDEST SWAP1 POP SWAP2 SWAP1 POP JUMP JUMPDEST PUSH2 0x15C3 DUP2 PUSH2 0x15A8 JUMP JUMPDEST DUP2 EQ PUSH2 0x15CE JUMPI PUSH1 0x0 DUP1 REVERT JUMPDEST POP JUMP JUMPDEST PUSH1 0x0 DUP2 MLOAD SWAP1 POP PUSH2 0x15E0 DUP2 PUSH2 0x15BA JUMP JUMPDEST SWAP3 SWAP2 POP POP JUMP JUMPDEST PUSH1 0x0 PUSH1 0x20 DUP3 DUP5 SUB SLT ISZERO PUSH2 0x15FC JUMPI PUSH2 0x15FB PUSH2 0xBF3 JUMP JUMPDEST JUMPDEST PUSH1 0x0 PUSH2 0x160A DUP5 DUP3 DUP6 ADD PUSH2 0x15D1 JUMP JUMPDEST SWAP2 POP POP SWAP3 SWAP2 POP POP JUMP JUMPDEST PUSH32 0x4E487B7100000000000000000000000000000000000000000000000000000000 PUSH1 0x0 MSTORE PUSH1 0x11 PUSH1 0x4 MSTORE PUSH1 0x24 PUSH1 0x0 REVERT JUMPDEST PUSH1 0x0 PUSH2 0x164D DUP3 PUSH2 0xF84 JUMP JUMPDEST SWAP2 POP PUSH8 0xFFFFFFFFFFFFFFFF DUP3 SUB PUSH2 0x1667 JUMPI PUSH2 0x1666 PUSH2 0x1613 JUMP JUMPDEST JUMPDEST PUSH1 0x1 DUP3 ADD SWAP1 POP SWAP2 SWAP1 POP JUMP JUMPDEST PUSH1 0x0 PUSH2 0x1685 PUSH2 0x1680 DUP5 PUSH2 0xE39 JUMP JUMPDEST PUSH2 0xE1E JUMP JUMPDEST SWAP1 POP DUP3 DUP2 MSTORE PUSH1 0x20 DUP2 ADD DUP5 DUP5 DUP5 ADD GT ISZERO PUSH2 0x16A1 JUMPI PUSH2 0x16A0 PUSH2 0xDB9 JUMP JUMPDEST JUMPDEST PUSH2 0x16AC DUP5 DUP3 DUP6 PUSH2 0xCBF JUMP JUMPDEST POP SWAP4 SWAP3 POP POP POP JUMP JUMPDEST PUSH1 0x0 DUP3 PUSH1 0x1F DUP4 ADD SLT PUSH2 0x16C9 JUMPI PUSH2 0x16C8 PUSH2 0xDB4 JUMP JUMPDEST JUMPDEST DUP2 MLOAD PUSH2 0x16D9 DUP5 DUP3 PUSH1 0x20 DUP7 ADD PUSH2 0x1672 JUMP JUMPDEST SWAP2 POP POP SWAP3 SWAP2 POP POP JUMP JUMPDEST PUSH1 0x0 DUP2 MLOAD SWAP1 POP PUSH2 0x16F1 DUP2 PUSH2 0xEE9 JUMP JUMPDEST SWAP3 SWAP2 POP POP JUMP JUMPDEST PUSH1 0x0 DUP1 PUSH1 0x40 DUP4 DUP6 SUB SLT ISZERO PUSH2 0x170E JUMPI PUSH2 0x170D PUSH2 0xBF3 JUMP JUMPDEST JUMPDEST PUSH1 0x0 DUP4 ADD MLOAD PUSH8 0xFFFFFFFFFFFFFFFF DUP2 GT ISZERO PUSH2 0x172C JUMPI PUSH2 0x172B PUSH2 0xBF8 JUMP JUMPDEST JUMPDEST PUSH2 0x1738 DUP6 DUP3 DUP7 ADD PUSH2 0x16B4 JUMP JUMPDEST SWAP3 POP POP PUSH1 0x20 PUSH2 0x1749 DUP6 DUP3 DUP7 ADD PUSH2 0x16E2 JUMP JUMPDEST SWAP2 POP POP SWAP3 POP SWAP3 SWAP1 POP JUMP JUMPDEST PUSH32 0x43726564656E7469616C20736368656D61206E6F742073657400000000000000 PUSH1 0x0 DUP3 ADD MSTORE POP JUMP JUMPDEST PUSH1 0x0 PUSH2 0x1789 PUSH1 0x19 DUP4 PUSH2 0xCAE JUMP JUMPDEST SWAP2 POP PUSH2 0x1794 DUP3 PUSH2 0x1753 JUMP JUMPDEST PUSH1 0x20 DUP3 ADD SWAP1 POP SWAP2 SWAP1 POP JUMP JUMPDEST PUSH1 0x0 PUSH1 0x20 DUP3 ADD SWAP1 POP DUP2 DUP2 SUB PUSH1 0x0 DUP4 ADD MSTORE PUSH2 0x17B8 DUP2 PUSH2 0x177C JUMP JUMPDEST SWAP1 POP SWAP2 SWAP1 POP JUMP JUMPDEST PUSH1 0x0 PUSH1 0x40 DUP3 ADD SWAP1 POP DUP2 DUP2 SUB PUSH1 0x0 DUP4 ADD MSTORE PUSH2 0x17D9 DUP2 DUP6 PUSH2 0xCFA JUMP JUMPDEST SWAP1 POP PUSH2 0x17E8 PUSH1 0x20 DUP4 ADD DUP5 PUSH2 0xD3D JUMP JUMPDEST SWAP4 SWAP3 POP POP POP JUMP JUMPDEST PUSH32 0x4E487B7100000000000000000000000000000000000000000000000000000000 PUSH1 0x0 MSTORE PUSH1 0x21 PUSH1 0x4 MSTORE PUSH1 0x24 PUSH1 0x0 REVERT JUMPDEST PUSH2 0x1827 DUP2 PUSH2 0xF84 JUMP JUMPDEST DUP3 MSTORE POP POP JUMP JUMPDEST PUSH2 0x1836 DUP2 PUSH2 0xC1D JUMP JUMPDEST DUP3 MSTORE POP POP JUMP JUMPDEST PUSH1 0x4 DUP2 LT PUSH2 0x184D JUMPI PUSH2 0x184C PUSH2 0x17EF JUMP JUMPDEST JUMPDEST POP JUMP JUMPDEST PUSH1 0x0 DUP2 SWAP1 POP PUSH2 0x185E DUP3 PUSH2 0x183C JUMP JUMPDEST SWAP2 SWAP1 POP JUMP JUMPDEST PUSH1 0x0 PUSH2 0x186E DUP3 PUSH2 0x1850 JUMP JUMPDEST SWAP1 POP SWAP2 SWAP1 POP JUMP JUMPDEST PUSH2 0x187E DUP2 PUSH2 0x1863 JUMP JUMPDEST DUP3 MSTORE POP POP JUMP JUMPDEST PUSH2 0x188D DUP2 PUSH2 0xC88 JUMP JUMPDEST DUP3 MSTORE POP POP JUMP JUMPDEST PUSH1 0x0 DUP2 MLOAD SWAP1 POP SWAP2 SWAP1 POP JUMP JUMPDEST PUSH1 0x0 DUP3 DUP3 MSTORE PUSH1 0x20 DUP3 ADD SWAP1 POP SWAP3 SWAP2 POP POP JUMP JUMPDEST PUSH1 0x0 DUP2 SWAP1 POP PUSH1 0x20 DUP3 ADD SWAP1 POP SWAP2 SWAP1 POP JUMP JUMPDEST PUSH1 0x0 DUP2 MLOAD SWAP1 POP SWAP2 SWAP1 POP JUMP JUMPDEST PUSH1 0x0 DUP3 DUP3 MSTORE PUSH1 0x20 DUP3 ADD SWAP1 POP SWAP3 SWAP2 POP POP JUMP JUMPDEST PUSH1 0x0 PUSH2 0x18E6 DUP3 PUSH2 0x18BF JUMP JUMPDEST PUSH2 0x18F0 DUP2 DUP6 PUSH2 0x18CA JUMP JUMPDEST SWAP4 POP PUSH2 0x1900 DUP2 DUP6 PUSH1 0x20 DUP7 ADD PUSH2 0xCBF JUMP JUMPDEST PUSH2 0x1909 DUP2 PUSH2 0xCE9 JUMP JUMPDEST DUP5 ADD SWAP2 POP POP SWAP3 SWAP2 POP POP JUMP JUMPDEST PUSH1 0x0 PUSH2 0x1920 DUP4 DUP4 PUSH2 0x18DB JUMP JUMPDEST SWAP1 POP SWAP3 SWAP2 POP POP JUMP JUMPDEST PUSH1 0x0 PUSH1 0x20 DUP3 ADD SWAP1 POP SWAP2 SWAP1 POP JUMP JUMPDEST PUSH1 0x0 PUSH2 0x1940 DUP3 PUSH2 0x1893 JUMP JUMPDEST PUSH2 0x194A DUP2 DUP6 PUSH2 0x189E JUMP JUMPDEST SWAP4 POP DUP4 PUSH1 0x20 DUP3 MUL DUP6 ADD PUSH2 0x195C DUP6 PUSH2 0x18AF JUMP JUMPDEST DUP1 PUSH1 0x0 JUMPDEST DUP6 DUP2 LT ISZERO PUSH2 0x1998 JUMPI DUP5 DUP5 SUB DUP10 MSTORE DUP2 MLOAD PUSH2 0x1979 DUP6 DUP3 PUSH2 0x1914 JUMP JUMPDEST SWAP5 POP PUSH2 0x1984 DUP4 PUSH2 0x1928 JUMP JUMPDEST SWAP3 POP PUSH1 0x20 DUP11 ADD SWAP10 POP POP PUSH1 0x1 DUP2 ADD SWAP1 POP PUSH2 0x1960 JUMP JUMPDEST POP DUP3 SWAP8 POP DUP8 SWAP6 POP POP POP POP POP POP SWAP3 SWAP2 POP POP JUMP JUMPDEST PUSH1 0x0 PUSH2 0x140 DUP4 ADD PUSH1 0x0 DUP4 ADD MLOAD PUSH2 0x19C3 PUSH1 0x0 DUP7 ADD DUP3 PUSH2 0x181E JUMP JUMPDEST POP PUSH1 0x20 DUP4 ADD MLOAD PUSH2 0x19D6 PUSH1 0x20 DUP7 ADD DUP3 PUSH2 0x181E JUMP JUMPDEST POP PUSH1 0x40 DUP4 ADD MLOAD PUSH2 0x19E9 PUSH1 0x40 DUP7 ADD DUP3 PUSH2 0x181E JUMP JUMPDEST POP PUSH1 0x60 DUP4 ADD MLOAD PUSH2 0x19FC PUSH1 0x60 DUP7 ADD DUP3 PUSH2 0x181E JUMP JUMPDEST POP PUSH1 0x80 DUP4 ADD MLOAD PUSH2 0x1A0F PUSH1 0x80 DUP7 ADD DUP3 PUSH2 0x182D JUMP JUMPDEST POP PUSH1 0xA0 DUP4 ADD MLOAD PUSH2 0x1A22 PUSH1 0xA0 DUP7 ADD DUP3 PUSH2 0x181E JUMP JUMPDEST POP PUSH1 0xC0 DUP4 ADD MLOAD PUSH2 0x1A35 PUSH1 0xC0 DUP7 ADD DUP3 PUSH2 0x1875 JUMP JUMPDEST POP PUSH1 0xE0 DUP4 ADD MLOAD PUSH2 0x1A48 PUSH1 0xE0 DUP7 ADD DUP3 PUSH2 0x1884 JUMP JUMPDEST POP PUSH2 0x100 DUP4 ADD MLOAD DUP5 DUP3 SUB PUSH2 0x100 DUP7 ADD MSTORE PUSH2 0x1A62 DUP3 DUP3 PUSH2 0x1935 JUMP JUMPDEST SWAP2 POP POP PUSH2 0x120 DUP4 ADD MLOAD DUP5 DUP3 SUB PUSH2 0x120 DUP7 ADD MSTORE PUSH2 0x1A7E DUP3 DUP3 PUSH2 0x18DB JUMP JUMPDEST SWAP2 POP POP DUP1 SWAP2 POP POP SWAP3 SWAP2 POP POP JUMP JUMPDEST POP JUMP JUMPDEST PUSH1 0x0 PUSH2 0x1A9B PUSH1 0x0 DUP4 PUSH2 0xCAE JUMP JUMPDEST SWAP2 POP PUSH2 0x1AA6 DUP3 PUSH2 0x1A8B JUMP JUMPDEST PUSH1 0x0 DUP3 ADD SWAP1 POP SWAP2 SWAP1 POP JUMP JUMPDEST PUSH1 0x0 DUP3 DUP3 MSTORE PUSH1 0x20 DUP3 ADD SWAP1 POP SWAP3 SWAP2 POP POP JUMP JUMPDEST PUSH1 0x0 PUSH2 0x1ACF PUSH1 0x0 DUP4 PUSH2 0x1AB1 JUMP JUMPDEST SWAP2 POP PUSH2 0x1ADA DUP3 PUSH2 0x1A8B JUMP JUMPDEST PUSH1 0x0 DUP3 ADD SWAP1 POP SWAP2 SWAP1 POP JUMP JUMPDEST PUSH1 0x0 PUSH1 0x80 DUP3 ADD SWAP1 POP DUP2 DUP2 SUB PUSH1 0x0 DUP4 ADD MSTORE PUSH2 0x1AFF DUP2 DUP5 PUSH2 0x19AA JUMP JUMPDEST SWAP1 POP DUP2 DUP2 SUB PUSH1 0x20 DUP4 ADD MSTORE PUSH2 0x1B12 DUP2 PUSH2 0x1A8E JUMP JUMPDEST SWAP1 POP DUP2 DUP2 SUB PUSH1 0x40 DUP4 ADD MSTORE PUSH2 0x1B25 DUP2 PUSH2 0x1AC2 JUMP JUMPDEST SWAP1 POP DUP2 DUP2 SUB PUSH1 0x60 DUP4 ADD MSTORE PUSH2 0x1B38 DUP2 PUSH2 0x1AC2 JUMP JUMPDEST SWAP1 POP SWAP3 SWAP2 POP POP JUMP JUMPDEST PUSH1 0x0 PUSH1 0x20 DUP3 DUP5 SUB SLT ISZERO PUSH2 0x1B56 JUMPI PUSH2 0x1B55 PUSH2 0xBF3 JUMP JUMPDEST JUMPDEST PUSH1 0x0 PUSH2 0x1B64 DUP5 DUP3 DUP6 ADD PUSH2 0x1205 JUMP JUMPDEST SWAP2 POP POP SWAP3 SWAP2 POP POP JUMP JUMPDEST PUSH32 0x496E76616C696420736368656D61204944000000000000000000000000000000 PUSH1 0x0 DUP3 ADD MSTORE POP JUMP JUMPDEST PUSH1 0x0 PUSH2 0x1BA3 PUSH1 0x11 DUP4 PUSH2 0xCAE JUMP JUMPDEST SWAP2 POP PUSH2 0x1BAE DUP3 PUSH2 0x1B6D JUMP JUMPDEST PUSH1 0x20 DUP3 ADD SWAP1 POP SWAP2 SWAP1 POP JUMP JUMPDEST PUSH1 0x0 PUSH1 0x20 DUP3 ADD SWAP1 POP DUP2 DUP2 SUB PUSH1 0x0 DUP4 ADD MSTORE PUSH2 0x1BD2 DUP2 PUSH2 0x1B96 JUMP JUMPDEST SWAP1 POP SWAP2 SWAP1 POP JUMP JUMPDEST PUSH32 0x4F6E6C79206F6E6520726563697069656E7420616C6C6F776564000000000000 PUSH1 0x0 DUP3 ADD MSTORE POP JUMP JUMPDEST PUSH1 0x0 PUSH2 0x1C0F PUSH1 0x1A DUP4 PUSH2 0xCAE JUMP JUMPDEST SWAP2 POP PUSH2 0x1C1A DUP3 PUSH2 0x1BD9 JUMP JUMPDEST PUSH1 0x20 DUP3 ADD SWAP1 POP SWAP2 SWAP1 POP JUMP JUMPDEST PUSH1 0x0 PUSH1 0x20 DUP3 ADD SWAP1 POP DUP2 DUP2 SUB PUSH1 0x0 DUP4 ADD MSTORE PUSH2 0x1C3E DUP2 PUSH2 0x1C02 JUMP JUMPDEST SWAP1 POP SWAP2 SWAP1 POP JUMP JUMPDEST PUSH1 0x0 DUP1 PUSH1 0x40 DUP4 DUP6 SUB SLT ISZERO PUSH2 0x1C5C JUMPI PUSH2 0x1C5B PUSH2 0xBF3 JUMP JUMPDEST JUMPDEST PUSH1 0x0 DUP4 ADD CALLDATALOAD PUSH8 0xFFFFFFFFFFFFFFFF DUP2 GT ISZERO PUSH2 0x1C7A JUMPI PUSH2 0x1C79 PUSH2 0xBF8 JUMP JUMPDEST JUMPDEST PUSH2 0x1C86 DUP6 DUP3 DUP7 ADD PUSH2 0xEBB JUMP JUMPDEST SWAP3 POP POP PUSH1 0x20 PUSH2 0x1C97 DUP6 DUP3 DUP7 ADD PUSH2 0xF00 JUMP JUMPDEST SWAP2 POP POP SWAP3 POP SWAP3 SWAP1 POP JUMP JUMPDEST PUSH32 0x436F75727365206E616D652063616E6E6F7420626520656D7074790000000000 PUSH1 0x0 DUP3 ADD MSTORE POP JUMP JUMPDEST PUSH1 0x0 PUSH2 0x1CD7 PUSH1 0x1B DUP4 PUSH2 0xCAE JUMP JUMPDEST SWAP2 POP PUSH2 0x1CE2 DUP3 PUSH2 0x1CA1 JUMP JUMPDEST PUSH1 0x20 DUP3 ADD SWAP1 POP SWAP2 SWAP1 POP JUMP JUMPDEST PUSH1 0x0 PUSH1 0x20 DUP3 ADD SWAP1 POP DUP2 DUP2 SUB PUSH1 0x0 DUP4 ADD MSTORE PUSH2 0x1D06 DUP2 PUSH2 0x1CCA JUMP JUMPDEST SWAP1 POP SWAP2 SWAP1 POP JUMP JUMPDEST PUSH32 0x497373756520646174652063616E6E6F7420626520696E207468652066757475 PUSH1 0x0 DUP3 ADD MSTORE PUSH32 0x7265000000000000000000000000000000000000000000000000000000000000 PUSH1 0x20 DUP3 ADD MSTORE POP JUMP JUMPDEST PUSH1 0x0 PUSH2 0x1D69 PUSH1 0x22 DUP4 PUSH2 0xCAE JUMP JUMPDEST SWAP2 POP PUSH2 0x1D74 DUP3 PUSH2 0x1D0D JUMP JUMPDEST PUSH1 0x40 DUP3 ADD SWAP1 POP SWAP2 SWAP1 POP JUMP JUMPDEST PUSH1 0x0 PUSH1 0x20 DUP3 ADD SWAP1 POP DUP2 DUP2 SUB PUSH1 0x0 DUP4 ADD MSTORE PUSH2 0x1D98 DUP2 PUSH2 0x1D5C JUMP JUMPDEST SWAP1 POP SWAP2 SWAP1 POP JUMP INVALID LOG2 PUSH5 0x6970667358 0x22 SLT KECCAK256 0xE8 0xD2 SLT PUSH0 SWAP8 0xE2 SWAP13 0xB5 0xB1 CALLDATALOAD SWAP13 0x4D TLOAD PREVRANDAO GT 0xEB GT SHL 0xB5 CREATE SWAP8 EXTCODEHASH BLOCKHASH 0xC6 SSTORE 0xE8 BLOBHASH 0xE6 SELFBALANCE SWAP7 0xB5 SGT PUSH5 0x736F6C6343 STOP ADDMOD XOR STOP CALLER "},"gasEstimates":{"creation":{"codeDepositCost":"1527400","executionCost":"infinite","totalCost":"infinite"},"external":{"credentialSchemaId()":"2543","issueCredential(address,string,uint256)":"infinite","owner()":"2567","renounceOwnership()":"infinite","schemaHook(uint64,bytes,bytes[])":"infinite","setCredentialSchemaID(uint64)":"infinite","setSPInstance(address)":"infinite","spInstance()":"infinite","transferOwnership(address)":"infinite","verifyCredential(address)":"infinite"}},"methodIdentifiers":{"credentialSchemaId()":"b4c4a054","issueCredential(address,string,uint256)":"8e9841d0","owner()":"8da5cb5b","renounceOwnership()":"715018a6","schemaHook(uint64,bytes,bytes[])":"f84dd785","setCredentialSchemaID(uint64)":"e14e071b","setSPInstance(address)":"8e9d660f","spInstance()":"a8c5dc33","transferOwnership(address)":"f2fde38b","verifyCredential(address)":"70dd0dbc"}},"storageLayout":{"storage":[{"astId":639,"contract":"contracts/FundMe.sol:EducationalCredential","label":"_owner","offset":0,"slot":"0","type":"t_address"},{"astId":901,"contract":"contracts/FundMe.sol:EducationalCredential","label":"spInstance","offset":0,"slot":"1","type":"t_contract(ISP)495"},{"astId":903,"contract":"contracts/FundMe.sol:EducationalCredential","label":"credentialSchemaId","offset":20,"slot":"1","type":"t_uint64"}],"types":{"t_address":{"encoding":"inplace","label":"address","numberOfBytes":"20"},"t_contract(ISP)495":{"encoding":"inplace","label":"contract ISP","numberOfBytes":"20"},"t_uint64":{"encoding":"inplace","label":"uint64","numberOfBytes":"8"}}},"userdoc":{"kind":"user","methods":{},"version":1}}}}